:100000000C940E030C9455030C9455030C94550357
:100010000C9455030C9455030C9455030C94550300
:100020000C9455030C9455030C94FB310C94CD3275
:100030000C94ED2C0C9455030C9455030C9455031F
:100040000C9455030C9455030C9455030C945503D0
:100050000C9455030C94622D0C9455030C94550389
:100060000C9455030C9455030C9455030C945503B0
:100070000C9455030C9455030C9455030C945503A0
:100080000C9455030C9455030C9455030C94550390
:100090000C9455030C9455030C9455030C94550380
:1000A0000C9455030C9455030C945503910591053C
:1000B000BD05BD05250643065B075B074E06E70643
:1000C000F806F806FF07FF071108110808081108CD
:1000D00011081108FF07FF070D08110811080D0886
:1000E0003A336133593461335934AD33D0335934F1
:1000F000273436340026364600273747002838484C
:1001000000293949002A3A4A002B3B4B0126364642
:10011000012737470128384801293949012A3A4A35
:10012000012B3B4B02263646022737470228384828
:1001300000746454007565550076665600796959F7
:10014000007A6A5A007B6B5B0175655501766656CD
:1001500001796959017A6A5A017B6B5B02746454B4
:10016000027565550276665600A4948400A59585AF
:1001700000A6968600A7978700A8988800A9998965
:10018000027B6B5B01A4948401A5958501A69686EC
:1001900001A7978701A8988801A9998902796959C7
:1001A000027A6A5A002E3E4E002F3F4F00304050D8
:1001B00000314151003242520033435301AC9C8C18
:1001C000012E3E4E012F3F4F013040500131415131
:1001D000013242520133435302A7978702A89888FD
:1001E000007C6C5C007D6D5D007E6E5E00817161E7
:1001F000008272620083736301AD9D8D017C6C5C33
:10020000017D6D5D017E6E5E0181716101827262B0
:100210000183736302A9998900AC9C8C00AD9D8D0C
:1002200000AE9E8E00AF9F8F00B0A09000B1A19154
:1002300001AE9E8E01AF9F8F01B0A09001B1A19140
:1002400002293949022A3A4A022B3B4B29003A003B
:100250003B003C003D003E003F00400041004200AA
:100260004300440045004C00460035001E001F00BE
:100270002000210022000000230024002500260089
:1002800027002D002E002A002B0014001A00080061
:10029000150017004A001C0018000C001200130083
:1002A0002F0030003100E0000400160007000900B4
:1002B0000A0039000B000D000E000F00330034005F
:1002C00031004D00E1001D001B0006001900050073
:1002D0002A0011001000360037003800E5005200F7
:1002E0000000E200E0004B0000002C002800E300CA
:1002F000E60000004E000151E400500051004F00A4
:10030000005C01000100010001000100010001008A
:100310000100B200B300AF00B100145CDF5C01006B
:1003200001000100010001000100000001000100C6
:10033000010001000100010001005300C35CC45C26
:10034000CA5CC65C010001004A0001000100010016
:10035000010001000100010001000100CD5CCB5C47
:10036000CC5C01000100010001000100010001005E
:100370000100010001004D00010001000100010029
:100380000100010001000100010001000100010065
:10039000A800A90000000100010001000000010008
:1003A000010001000100000001000100AE00AC00EE
:1003B000AA00AB00000101010101010101010202DB
:1003C0000202020202020203030303030303030403
:1003D00004040404040405050505050606060606CE
:1003E000070707070708080808090909090A0A0A88
:1003F0000B0B0B0C0C0C0D0D0D0E0E0E0F0F0F102A
:1004000010111111121213131414151516161717B3
:10041000181819191A1A1B1B1C1D1D1E1E1F20201F
:10042000212222232424252626272829292A2B2C69
:100430002D2D2E2F30313232333435363738393A8C
:100440003B3C3D3E3F404142434445464748494A84
:100450004C4D4E4F50515354555658595A5B5D5E52
:100460005F616264656668696B6C6D6F70727375ED
:1004700077787A7B7D7E8082838587888A8C8E8F51
:1004800091939596989A9C9EA0A2A3A5A7A9ABAD7F
:10049000AFB1B3B5B7BABCBEC0C2C4C6C9CBCDCF6D
:1004A000D1D4D6D8DBDDDFE2E4E7E9EBEEF0F3F51B
:1004B000F8FAFDFF0E034B004E00490047004800CC
:1004C000540000000E0358002D0042004F0057005A
:1004D000530000000403090409023B00020100A0CC
:1004E000FA090400000103010100092111010001C2
:1004F0002240000705810308000A090401000103E6
:1005000000000009211101000122B6000705820345
:1005100020000A1201000200000008EDFE25120171
:10052000000102000105010902A10185020901A1E2
:100530000005091901290815002501950875018193
:10054000020501093009311581257F950275088161
:100550000609381581257F950175088106050C0A65
:1005600038021581257F950175088106C0C00501F7
:100570000980A101850319012AB700150126B700DA
:10058000950175108100C0050C0901A101850419B0
:10059000012AA002150126A002950175108100C054
:1005A00005010906A1018506050719E029E71500DF
:1005B00025019508750181020507190029EF15002D
:1005C000250195F075018102050819012905950598
:1005D00075019102950175039101C005010906A1FC
:1005E00001050719E029E715002501950875018126
:1005F000029501750881010507190029FF150026DC
:10060000FF00950675088100050819012905950563
:1006100075019102950175039101C00011241FBE5F
:10062000CFEFDAE0DEBFCDBF04B603FE27C0809176
:10063000F6069091F706A091F806B091F90687307A
:10064000904BA740B04BD1F41092F6061092F706EB
:100650001092F8061092F90614BE84B7877F84BF03
:100660000FB6F894A895809160008861809360002F
:10067000109260000FBEE0E0F8E3099513E0A0E0FF
:10068000B1E0EAEDFBE602C005900D92AC30B10797
:10069000D9F726E0ACE0B3E001C01D92A63FB20757
:1006A000E1F70E947B130C94EB350C9400000E9440
:1006B000762B81FF07C02FEF4FEF6FEF8CE290E0BA
:1006C0000C94CC19089581E0089581E008950C946C
:1006D000650308950C9469031F93CF93DF9300D0B3
:1006E00000D01F92CDB7DEB749835A836B83309118
:1006F0000E0389819A81311114C0662359F0222397
:1007000049F00E94A309182F682F89819A810E94BD
:100710004C0903C00E947709182F69817A81812FC3
:1007200004C00E94A30969817A810F900F900F90F5
:100730000F900F90DF91CF911F910C94E610FC0168
:10074000262F408151816281738184810C946C03D6
:1007500081E00895CF93DF93EC0160E00E949F0356
:10076000BE01DF91CF910C946A030E94EF110E94A9
:1007700044040E9426240C942C120C9428120E94EB
:100780005D2380E00E94450481E00C945C24089580
:100790000C94C7030E94ED070E94C8032FEF84E367
:1007A0009CE0215080409040E1F700C000000C9494
:1007B000882D0F931F93CF93DF938C0161E00E94EC
:1007C0009F03EC01B8010E946703882309F444C029
:1007D000B801CE010E94302A8823F1F1B801CE0180
:1007E0000E945A288823C1F1B801CE010E948C29A9
:1007F000882391F1B801CE010E94BE27882361F1C0
:10080000F8018281882309F1CB358DE5D807C1F045
:1008100050F4C115FCE5DF0781F0CF3DDC45A9F4BC
:100820000E94CD0E19C0CC35EDE5DE0761F0CD3567
:10083000DD4559F40E94100E08C00E94CA030CC086
:100840000E94190E02C00E941C0EC801DF91CF91B8
:100850001F910F910C94630380E0DF91CF911F9162
:100860000F9108950C94C7030E946A2B0E944504BF
:1008700080E00E945C240C94320408950C943D04A2
:1008800081E008950C9440040895CF93C82F0E94EE
:100890003E048C2F0E944204CF910895CF93DF93A2
:1008A000CDB7DEB72B970FB6F894DEBF0FBECDBF26
:1008B0004F83588769877A878B8761110E94690DFA
:1008C0009E012F5F3F4F86E0F90111928A95E9F76B
:1008D00085E0FE013796D90101900D928A95E1F7E6
:1008E00089819A814C815D81452B31F09F3F31F4A4
:1008F00091E08F3F19F403C091E001C090E090FFB8
:1009000009C049815A816B817C818D819E810E94C1
:100910008A0C05C0C9010E94A8038111F2CF2B9651
:100920000FB6F894DEBF0FBECDBFDF91CF91089513
:10093000FC01808191810E94E5090895CF9388236D
:1009400009F450C0C82F8CEF8C0F813AD0F46C2F73
:1009500080916202909163020E94E32B882349F008
:100960006C2F80916202909163020E946E2C0E9413
:100970008E0D6C2F80916202909163020E94632C15
:100980000CC080E28C0F883058F4C77081E001C041
:10099000880FCA95EAF70E944C0DCF910C948E0DEA
:1009A000EBE5EC0FE33040F4F0E0EE54FD4F8081D6
:1009B00090E0CF910C94A12BE8E5EC0FE73150F4D7
:1009C000F0E0EE0FFF1FEC57FD4F80819181CF913A
:1009D0000C94B72BCD3E30F08C2F0E940A14CF918F
:1009E0000C94DC14CF910895882389F19CEF980F23
:1009F000913A40F4682F80916202909163020E94C4
:100A00006E2C0DC090E2980F983058F4877091E0EA
:100A100001C0990F8A95EAF7892F0E94520D0C9414
:100A20008E0D9BE5980F933020F480E090E00C94BD
:100A3000A12B98E5980F973120F480E090E00C947A
:100A4000B72B8D3E20F00E9465140C94DC140895A1
:100A50001F93CF93DF93182FEB010E949E042097E2
:100A600041F08FE99FE00197F1F700C00000219766
:100A7000F6CF812FDF91CF911F910C94F40489332D
:100A800019F060E070E002C060E570E00C942805A9
:100A9000882321F00E944C0D0C948E0D089588231C
:100AA00021F00E94520D0C948E0D0895CF92DF928A
:100AB000EF92FF920F931F93CF93DF937C01D62F7A
:100AC000C72FFC011281058102950F700E94420D13
:100AD0008823B9F01123A9F08C2F807F803421F076
:100AE00080E28D0F883068F08091D50482FD09C0C6
:100AF00082E00E94DE0D0E94420D91E0D82ED926A0
:100B000001C0D12CCC2EC2948FE0C8228C2D90E055
:100B10008C30910508F0CFC1FC01EA5AFF4F0C94CC
:100B2000F6348C2F807FCF70882311F0C295C07F60
:100B3000112399F0CC2309F4AAC180E28D0F8830EB
:100B400010F0D11104C08C2F0E944C0D03C08C2FCB
:100B50000E945C0D0E948E0D9AC18D2F0E94F4049C
:100B6000CC2309F4A8C180E28D0F883038F1DD2351
:100B700029F18C2F0E94620D24C08C2F807FCF70B2
:100B8000803211F0C295C07FDD2319F0D130A1F180
:100B90003DC08091D50482FF17C0112349F0CC23BA
:100BA00029F08C2F0E944C0D0E948E0D80E070C1A8
:100BB00080E00E94F404CC2309F47DC18C2F0E94B4
:100BC000520D0E948E0D77C1112371F0002341F068
:100BD000013031F40E946F0D8C2B0E94770D6BC198
:100BE0000E946F0D8C2B1DC0002319F0013009F4F9
:100BF00062C10E94840D25C0112321F0063008F047
:100C00005AC10EC0053008F056C11BC0112361F057
:100C1000002331F0F701858180FF39C18F70858312
:100C20008C2F0E94480547C1002359F0D93309F0A1
:100C30003FC1FFEF07EE13E0F15000401040E1F735
:100C400035C18C2F0E944F0536C18C2F8695869515
:100C5000837019F0813061F02EC1112321F08D2FA6
:100C60009C2F937002C080E090E00E94A12B2BC1CA
:100C7000112321F08D2F9C2F937002C080E090E013
:100C80000E94B72B20C18D2F112319F00E940A1446
:100C900002C00E9465140E94DC1415C18C2F837061
:100CA00009F047C011110BC12D2F229526952770F1
:100CB000220F220F6D2F6F70862F90E0A0E0B0E022
:100CC000022E04C0880F991FAA1FBB1F0A94D2F7D7
:100CD000D4FF10C04FE050E060E070E004C0440F6B
:100CE000551F661F771F2A95D2F74095509560953E
:100CF000709503C040E050E0BA01C695C695C37038
:100D00008A019B01082B192B2A2B3B2BC901B80107
:100D1000C23049F058F4C13019F00E946208CFC0C7
:100D20000E945008CCC00E947408C9C00E944E089E
:100D3000C6C0112319F08C2F817001C086958823BD
:100D400009F4BDC02D2F229526952770220F220F62
:100D50006D2F6F70862F90E0A0E0B0E0022E04C0EF
:100D6000880F991FAA1FBB1F0A94D2F7D4FF10C087
:100D70004FE050E060E070E004C0440F551F661F74
:100D8000771F2A95D2F7409550956095709503C0CE
:100D900040E050E0BA01C695C695C3708A019B0138
:100DA000082B192B2A2B3B2BC901B801C23049F063
:100DB00058F4C13019F00E94270981C00E9415091A
:100DC0007EC00E9439097BC00E94880878C0CF701D
:100DD000112339F08C2F0E94AE088D2F0E944805F8
:100DE0006EC08D2F0E944F058C2F0E94CF0867C0C8
:100DF000D23F21F128F4D03F41F0D13FC1F043C0B0
:100E0000D33F19F1D43F79F03EC0112341F00530B2
:100E100008F051C08C2F8F710E94F4084CC006302E
:100E200008F049C0F7CF8091D50482FF18C0112384
:100E300039F08C2F8F710E94AE083DC01123C9F389
:100E40008C2F8F710E94CF0836C0112329F08C2F70
:100E50008F710E9499082FC00E9494082CC0112302
:100E600049F0CF718C2F0E94AE0863E08C2F0E9456
:100E7000C30D21C081E00E94DE0D0230E0F082E06F
:100E80000E94DE0D18C0112331F0002391F28D2F46
:100E90000E949E0410C0002399F2D93349F41FEF39
:100EA00027EE33E0115020403040E1F700C0000051
:100EB0008D2F0E94F40488EF8C0D843020F40E9462
:100EC0006A2B0E944504DD20C9F00E943E0D80FD82
:100ED00015C0F70112820E94380D0E94AE08C701AA
:100EE0000E949F070E94380DDF91CF911F910F91B3
:100EF000FF90EF90DF90CF900C94CF08DF91CF91CF
:100F00001F910F91FF90EF90DF90CF9008950F9376
:100F10001F93CF93DF93EC01688179818A810E94CE
:100F2000F0098C010E944B090E943C08B801CE01D7
:100F30000E945605DF91CF911F910F910895CF9395
:100F4000DF93EC01988189812B813C81232B31F047
:100F50008F3F31F481E09F3F19F403C081E001C06D
:100F600080E080FD1DC0CE010E94D903811110C018
:100F70000E94420D8823A1F08A81882389F0809104
:100F8000D50482FD0DC082E0DF91CF910C94DE0D7F
:100F9000CE010E948707CE01DF91CF910C94AA0366
:100FA000DF91CF91089580E090E00E94A12B80E036
:100FB00090E00E94B72B0E94690D0E946C0D0E9468
:100FC0008E0D0E940D160C94DC148091620290919B
:100FD00063020E94792C0C94D3070E94590D0C9443
:100FE000E507E92FE295EF704E2F50E0FA013297B6
:100FF000EE30F105B0F4EE59FF4F0C94F634803F1B
:1010000091F018F4883E68F40EC0843F51F40BC090
:10101000883E48F0813F29F406C093FB882780F979
:10102000089580E0089581E00895FC018081918118
:101030000E94E5090E94F1070895CF93DF9300D045
:1010400000D01F92CDB7DEB70F900F900F900F908A
:101050000F90DF91CF910895CF93DF9300D000D010
:1010600000D0CDB7DEB726960FB6F894DEBF0FBE20
:10107000CDBFDF91CF910895089508950C943D0858
:101080000C943E080E94400860934F0370935003F5
:1010900080935103909352030C94D3070C9442080D
:1010A0000F931F9300914F03109150032091510310
:1010B00030915203602B712B822B932B1F910F9138
:1010C0000C9442080F931F9300914F03109150030B
:1010D0002091510330915203602371238223932383
:1010E0001F910F910C9442080F931F9300914F038F
:1010F00010915003209151033091520360277127C2
:10110000822793271F910F910C9442080C943D085D
:101110000E94860860934B0370934C0380934D03A9
:1011200090934E030C94D30760E070E0CB010C94D5
:1011300088080F931F9341E050E060E070E08A015F
:101140009B0104C0000F111F221F331F8A95D2F785
:10115000C901B8011F910F910C9488080F931F9338
:1011600041E050E060E070E004C0440F551F661F8E
:10117000771F8A95D2F780914B0390914C03A091F1
:101180004D03B0914E038A019B01082B192B2A2B8A
:101190003B2BC901B8011F910F910C9488080F9344
:1011A0001F9341E050E060E070E004C0440F551F21
:1011B000661F771F8A95D2F7409550956095709578
:1011C00080914B0390914C03A0914D03B0914E033D
:1011D0008A019B01082319232A233B23C901B80153
:1011E0001F910F910C9488080F931F9341E050E0DA
:1011F00060E070E004C0440F551F661F771F8A959A
:10120000D2F780914B0390914C03A0914D03B09184
:101210004E038A019B01082719272A273B27C9016A
:10122000B8011F910F910C9488080F931F930091A0
:101230004B0310914C0320914D0330914E03602BD2
:10124000712B822B932B1F910F910C9488080F9375
:101250001F9300914B0310914C0320914D0330914B
:101260004E0360237123822393231F910F910C94CB
:1012700088080F931F9300914B0310914C0320910A
:101280004D0330914E0360277127822793271F91CA
:101290000F910C94880808952FE0929F800D1124DF
:1012A000E82FE695E695E695877051E001C0550F69
:1012B0008A95EAF785E0E89FF0011124E15FFC4F91
:1012C00020E030E070E04081CB01022E02C0969514
:1012D00087950A94E2F78170819584278523842776
:1012E00081932F5F3F4F2530310569F708952FE037
:1012F000929F800D1124682F669566956695982FAC
:10130000977085E0689FB001112440E050E080E0D4
:10131000FB01E40FF51FE15FFC4F208130E0092E57
:1013200002C0369527950A94E2F721703327042EE0
:1013300001C0220F0A94EAF7822B4F5F5F4F4530BE
:10134000510531F70895BF92CF92DF92EF92FF924D
:101350000F931F93CF93DF938C01C0904B03D090DA
:101360004C03E0904D03F0904E0380914F03909119
:101370005003A0915103B0915203C82AD92AEA2AF6
:10138000FB2ACFE1D0E0D701C6010C2E04C0B695F0
:10139000A795979587950A94D2F780FD04C0219769
:1013A00090F7B12C07C0BC2EB8018C2F0E94F91009
:1013B0000197A9F38B2DDF91CF911F910F91FF9092
:1013C000EF90DF90CF90BF900895CF93DF93EC0123
:1013D0000E94A309BE010E94F910DF91CF910895E8
:1013E0001F93CF93DF93EB0190910E03992321F08C
:1013F000CB010E94E50913C0882349F0CB010E946C
:10140000A309182F682FCE010E944C0904C0CB01FC
:101410000E947709182FBE01812F0E94F910DF91D9
:10142000CF911F9108951F93CF93DF93C0915303E2
:1014300016E080915403C81799F0D0E01C9FF0018A
:101440001D9FF00D1124EB5AFC4F408151816281A8
:101450007381848195810E942C082196C770E9CF01
:10146000DF91CF911F91089540918503509186039C
:1014700060918703709188038091890390918A031A
:101480000C942C08EF92FF920F931F93CF93DF934E
:1014900080918A0382958F7009F065C080918703DF
:1014A000882309F460C080915303F0905403109195
:1014B000850300918603609188037091890391E010
:1014C0001F3F09F090E0C0916002D0916102292F86
:1014D00096E0E92E8F1509F446C06115710521F0DB
:1014E0000F3F21F030E003C031E001C0322F90E027
:1014F00030FD36C0E89EF001E99EF00D1124DF01B9
:10150000AB5ABC4F11963C911197301329C03C91B6
:10151000311326C012963C911297311121C01396B7
:101520004D915C911497461B570B4C175D07C0F407
:1015300080918A038F70806180938A03E65AFC4F02
:1015400080818F708061808385E893E00E949F078F
:10155000DF91CF911F910F91FF90EF900C94130AA0
:1015600001968770B7CFDF91CF911F910F91FF90B8
:10157000EF9008959F92AF92BF92CF92DF92EF9239
:10158000FF920F931F93CF93DF93CDB7DEB7619791
:101590000FB6F894DEBF0FBECDBF8C0185E0F80119
:1015A000DE011D9601900D928A95E1F7D801129601
:1015B000EC9090918503E09186032091880330910F
:1015C00089032115310531F0EF3F31F481E09F3F70
:1015D00019F403C081E001C080E0B82FB1709B2EE8
:1015E00080FD47C1D8014C9111965C9111971396DB
:1015F000AD90BC90149785E8C82E83E0D82EF0906B
:101600008703B501621B730B209160023091610268
:10161000FF2009F4D9C080918A036217730708F08C
:1016200095C0282F207F09F052C05E1313C04913C4
:1016300011C0FE2CE1100EC08F70806180938A0370
:101640000E94340AC6010E949F0780918A03F80114
:1016500085834DC1AB2831F05F3F31F481E04F3FCE
:1016600019F403C081E001C080E080FD03C081E087
:101670008E2502C080E090E0F82FF170FF2E80FFF1
:101680001CC0809153032091540336E0821709F463
:101690000BC190E0389FF001399FF00D1124EB5AF7
:1016A000FC4F6181561306C06081461303C06281FE
:1016B000E61203C001968770E9CFFE2CEE2009F4F4
:1016C00016C180918A03816080938A0354C05E139F
:1016D00006C0491304C0E11002C0F80199C0C80156
:1016E0000E941508882361F1EE2051F120918A03B0
:1016F000822F82958F7090E0029774F0809185031D
:101700009091860398878F831986BB86AA862C873B
:10171000CE0107960E949F0786E0F801A5E8B3E096
:1017200001900D928A95E1F70E94420A0E94340AC4
:101730000AC05E1711F1C8010E94150881112CC062
:10174000C8010E949F07FF24F394D1C0282F207F57
:1017500081F77A2DB98AA88A6E2D89890E941D0881
:1017600085E893E00E949F0786E0D6011D928A9546
:10177000E9F70E94340AF12CBAC04913DCCFE1101A
:10178000DACFF8018583C8010E949F0786E0D60161
:101790001D928A95E9F7ABC0EE2091F220918A0361
:1017A000822F82958F7090E002970CF4B5CF8091D4
:1017B0008503909186039A8389831B82BD82AC82C4
:1017C0002E83CE010196A6CF6217730708F044C09E
:1017D000FE2CEE2009F4B4CF5E1330C049132EC0A6
:1017E00020918A0320FD21C0822F82958F70482F7F
:1017F00050E041155105C9F0F80125834F305105DE
:1018000041F08F5F982F9295907F822F8F70892B58
:101810008583C8010E949F0786E0F801A5E8B3E030
:1018200001900D928A95E1F73CC086E0F801A5E8A9
:10183000B3E001900D928A95E1F759C0C8010E946A
:101840001508811169CF80918A03816080938A0392
:10185000C8010E949F074BC07A2DB98AA88A6E2DB5
:1018600089890E941D0886E0D6011D928A95E9F7B4
:1018700018C0EE2009F464CFC8010E941508F82EA4
:10188000882309F45DCF86E0F801A5E8B3E0019074
:101890000D928A95E1F785E893E00E9498040E94F2
:1018A000420A0E94340A23C04D875E878D859E853B
:1018B0000E94E509292F22952F70223028F49F706D
:1018C00039F0811105C00BC0243028F49F7049F411
:1018D000805E883020F0C8010E949F079F2CF92C61
:1018E00006C0D80115969C91907F91F7F8CF8F2D67
:1018F00061960FB6F894DEBF0FBECDBFDF91CF91DA
:101900001F910F91FF90EF90DF90CF90BF90AF901D
:101910009F9008951F93CF93DF93CDB7DEB72C9799
:101920000FB6F894DEBF0FBECDBF4F8358876987CF
:101930007A878B879C87CE0107960E94BA0A8823F4
:10194000D1F09F8188852A853B85232B31F08F3FFD
:1019500031F481E09F3F19F403C081E001C080E0D1
:1019600080FD47C04F81588569857A858B859C8528
:101970000E942C083EC086E0FE013796DE011196DB
:1019800001900D928A95E1F7FF81E8856A857B8554
:101990006115710531F0EF3F31F481E0FF3F19F43B
:1019A00003C081E001C080E080FD23C0209154038A
:1019B00030E0C9010196877099274091530350E0A8
:1019C00084179507F1F1F983EA837D836C8396E0B0
:1019D000929FD001939FB00D1124AB5ABC4FFE01D2
:1019E000319601900D929A95E1F7809354030E94ED
:1019F000130A16E08091530390915403891771F1F3
:101A0000189FC00111248B5A9C4F0E94BA0A882348
:101A100029F1E09153031E9FF0011124EB5AFC4F72
:101A20004081518162817381848195810E942C085B
:101A30008091530390E00196877099278093530318
:101A4000D9CF0E94ED071092540310925303E5E89A
:101A5000F3E086E0DF011D928A95E9F72C960FB638
:101A6000F894DEBF0FBECDBFDF91CF911F910895D7
:101A700080918B03859585958595089580918B033D
:101A80008770089590918B03977081E009F480E04E
:101A900008958091AF0308959091AF03892B8093AF
:101AA000AF03089580959091AF0389238093AF038E
:101AB00008951092AF0308959091AE03892B8093FF
:101AC000AE03089580959091AE0389238093AE0371
:101AD00008951092AE0308951092AD030895809179
:101AE0008C03089508950C94720D0C94730D9091CD
:101AF000D50492FD08C090918C03981721F0809333
:101B00008C030C94750D089580918C03882329F023
:101B100010928C0380E00C94750D0895E0916202A0
:101B2000F09163028091AF038083E0916202F091B3
:101B3000630290818091AE03892B8083E0916202E1
:101B4000F091630290818091AD03892B8083809115
:101B50008C03882381F0E0916202F091630290810E
:101B6000892B808380916202909163020E94CD2B29
:101B700081110E94840D80916202909163020C9405
:101B8000792B0C94720D9091D50492FD10C098E0C1
:101B9000899F90011124262B20938B030E94AE086D
:101BA00080918B038595859585950C94C10D0C943A
:101BB000AE0810928B0380E00C94C10D20918B0332
:101BC0008095822380938B03982F977099F430E04F
:101BD000482F082E000C550B2417350759F090910B
:101BE000D50492FD07C08595859585950E94CF08FF
:101BF0000C94D90D08959091D50492FB222720F9D9
:101C0000281769F080FB92F99093D5048091D40451
:101C10009091D5040E94490E82E00C94DE0D089547
:101C20008091D50482FB882780F991E089270C9464
:101C3000FB0D81E00C94FB0D80E00C94FB0D6FEF2D
:101C40007FEF80E090E00C94C33580E090E00E944C
:101C50008F3521E0893E9E4F09F020E0822F0895C4
:101C600082E090E00C94873583E090E00C94873517
:101C7000CF9384E090E00E948735C82F82E290E005
:101C80000E9487352C2F30E0A901582BCA01CF9133
:101C90000895CF93C92F682F84E090E00E94A53566
:101CA0006C2F82E290E0CF910C94A535AB01BC0182
:101CB0008FE090E00C94B735AB01BC0183E190E07C
:101CC0000C94B73560E070E0CB010C945C0E60E0E2
:101CD00070E0CB010E94560E0C94620E69EE7EEF0E
:101CE00080E090E00E94C33560E082E090E00E94D6
:101CF000A53560E083E090E00E94A53510924F0387
:101D000010925003109251031092520360E084E04D
:101D100090E00E94A53560E082E290E00E94A53547
:101D200060E085E090E00E94A53560E086E090E00C
:101D30000E94A5356FEF87E090E00E94A53540E056
:101D400050E0BA0188E090E00E94B73560E08DE095
:101D500090E00E94A53540E050E0BA0188E190E0B3
:101D60000E94B73560E087E190E00E94A53540E031
:101D700050E0BA018CE190E00E94B73560E070E07D
:101D800080E290E00E94C33540E050E0BA0188E173
:101D900090E00E94B7350C94670E0C946E0E682F7D
:101DA0008EE090E00C94A5350E942B2D6093C1032A
:101DB0007093C2038093C3039093C4036093BD03E5
:101DC0007093BE038093BF039093C003089585B7BB
:101DD000806885BF85B7806885BF089581E00895D4
:101DE0000C94EE0E08950C94F20E0C94F20E0C94DA
:101DF000F50E0C94F20E0C94F90E0C94F20E0E9457
:101E0000E70E85ED91E10E94602B0E94FD0E0C947F
:101E1000FB0E0E94F30E0C94F20E0E94162D0E94EF
:101E2000D4120C94F70E6F927F928F929F92AF9282
:101E3000BF92CF92DF92EF92FF920F931F93CF93B7
:101E4000DF93CDB7DEB72A970FB6F894DEBF0FBE8B
:101E5000CDBF0E94E91281110E94D40E31EB832E76
:101E600033E0932E00E010E0E02E802F0E9413124A
:101E70005C01F401619071904F016826792661142C
:101E80007104B1F40F5F1F4F0630110569F78FEF32
:101E900089838A831B820E941F2D8160782F9D83F6
:101EA0008C8349815A816B818D810E944E0443C08D
:101EB0008091C50381FD0E941C12F12CCC24C39497
:101EC000D12CC3018C219D21892B71F10E94F00E30
:101ED000AC20BD208823A1F0FE82EF8281E0A11416
:101EE000B10409F480E088870E941F2D8160782F5B
:101EF0009A8789874E815F8168858A850E944E0412
:101F0000000F111FF801EF54FC4F80819181C8260A
:101F1000D926D182C08241E0AB2809F440E06F2D80
:101F20008E2D0E94E91F07C0F394CC0CDD1CFFE04E
:101F3000FF12C7CFA7CF0E945D230E94FA140E9410
:101F40006A2B9091B0038917D1F00E946A2B80937D
:101F5000B0032A960FB6F894DEBF0FBECDBFDF9157
:101F6000CF911F910F91FF90EF90DF90CF90BF9096
:101F7000AF909F908F907F906F900C9445042A961D
:101F80000FB6F894DEBF0FBECDBFDF91CF911F918A
:101F90000F91FF90EF90DF90CF90BF90AF909F9008
:101FA0008F907F906F900895CF93DF930E94FE10E3
:101FB000EC01811521E5920708F045C0811530E557
:101FC000930708F094C0883E910528F5803E91055E
:101FD00008F0F8C0883A910570F4853A910508F048
:101FE0007CC08130910509F475C008F4E8C00497FD
:101FF00008F0E8C0E4C08F3B910508F0E0C0C85A83
:10200000D0E0CC0FDD1FCB54DD4F0990D881C02D1F
:10201000CE019464D8C0811540E2940758F481152C
:1020200051E0950708F0CEC08D3E910508F4C7C079
:102030009065C9C0C11580E4D80708F4C0C0DF703E
:10204000CE01906AC0C0811525E59207A8F48115DC
:1020500034E5930708F095C0811543E5940708F02F
:102060007BC0811552E5950708F061C0D82FCC27B9
:10207000CE01816F906AA7C0C11589E5D807A0F489
:10208000C11528E5D20708F082C0C11536E5D3078F
:1020900008F095C08C2F0E9492118F7190E0D82F7C
:1020A000CC27CE0190628FC0C1154AE5D40708F451
:1020B00074C0CE0190568115904208F080C08D2FDB
:1020C0008F710E949211DD27D0628F71AE01582B63
:1020D000CA0179C081E090E076C0C55AD0E0CD5108
:1020E000DD4F8881C82FD0E0CE0190646CC074E0D1
:1020F000969587957A95E1F7282F23703C2F3370BA
:1021000081E090E002C0880F991F3A95E2F79C6841
:10211000AC01522B9A019C2F9F709695969550E298
:10212000959FE0011124C9018C2B9D2B4CC083701D
:10213000992721E030E002C0220F331F8A95E2F791
:102140009C2F9695969580E2989FE0011124C22BD2
:10215000D32BCE019C6837C08370992721E030E0F3
:1021600002C0220F331F8A95E2F79C2F9695969511
:1021700040E2949FE0011124C22BD32BCE019A6838
:1021800022C0D82FCC27CE01846F906A1CC0DC2FD0
:10219000CC27CE01806F906A16C08C2F8F700E9462
:1021A000921194E0D695C7959A95E1F7CF70D0E05B
:1021B000DC2FCC27D0699E01282BC90104C080E008
:1021C00090E001C0CE01DF91CF9108952AE5829F72
:1021D000C0011124FC012FE0729FE00DF11D1124BC
:1021E000E60FF11DEE0FFF1FE45BFD4F859194910B
:1021F00008950E94E6100E94D40F08958238910538
:1022000069F1B0F48133910509F46DC048F4893265
:10221000910509F463C08A32910509F469C00895F3
:102220008533910509F455C089339105B9F00895B6
:10223000833E910569F138F4803E9105B1F0823E0C
:10224000910509F10895863E9105A9F1873E910512
:10225000B9F1843E910509F064C023C02091D404F3
:1022600020FD4FC021FD4DC008958091D40480FD14
:1022700044C08091D50480FF44C08091D40484FD83
:1022800042C083EE4DC08091D40482FF38C0F5CFA8
:102290008091D40482FD33C08091D50480FD31C08B
:1022A000ECCF8091D50481FF32C08091D40484FDAD
:1022B0002AC087EE35C08091D40483FF26C0F5CFB5
:1022C0008091D40483FD21C08091D50481FD1FC07D
:1022D000ECCF8091D40485FD1CC01DC08091D40436
:1022E00085FD19C016C08091D40486FD16C017C0A4
:1022F0008091D40486FD13C010C089E311C082EE22
:102300000FC080EE0DC080E00BC086EE09C084EEE9
:1023100007C089E205C085E303C08AE201C081E30A
:1023200090E008959091D40492FF0DC0282F287159
:10233000283019F4877F846006C0282F2471243048
:1023400011F48B7F886093FF0DC0282F28712831EE
:1023500019F4877E846106C0282F2471243111F47A
:102360008B7E88612091D50420FF0DC0382F3871F5
:10237000383019F4877F816006C0382F31713130D1
:1023800011F48E7F886021FF0DC0282F287128311D
:1023900019F4877E816106C0282F2171213111F443
:1023A0008E7E886194FD877E089580E008950C9468
:1023B0001F0E0E94E9128FEB9DE50197F1F700C017
:1023C00000000E94E91280E00E94131280FF04C006
:1023D0000E94D7110C94882D08950C94D9110E9455
:1023E000250E811102C00E94CD0E0E94300E8093F6
:1023F000C5030E94380E9093D5048093D4040E94A4
:10240000ED110E94340E682F70E080E090E00E9491
:102410004E0860914B0370914C0380914D03909155
:102420004E030C948608E82FF0E0EE0FFF1FEE51EC
:10243000FB4F808191810895089580EA8A95F1F794
:10244000089500C008950C941D1208950C9425124F
:102450000C9426120C9425120C942A12F894E82F4E
:10246000E295EF70F0E031A1282F2F7081E090E02D
:1024700001C0880F2A95EAF7982F9095932391A38E
:1024800092A1892B82A3789408950F931F93CF93E1
:10249000DF93C5EFD2E089918F3F11F00E942E1299
:1024A00082E0CB3FD807B9F7C6EED2E005EF12E0E5
:1024B00089918F3F11F00E942E120C171D07C1F752
:1024C000DF91CF911F910F910895BF92CF92DF922C
:1024D000EF92FF920F931F93CF93DF938C01C62F40
:1024E000D0E0CE018B509D4F6C01FC0190819F3F4D
:1024F00009F450C0B62EF894E92FE295EF70F0E0A1
:1025000081A19F7021E030E001C0220F9A95EAF787
:10251000822B81A382A12095282322A378940E9454
:102520002112E6EEF2E045EF52E021E030E0E12C4E
:10253000F12C61916F3F89F0A62FA295AF70B0E0AA
:1025400090968C9190E06F7002C0959587956A95F2
:10255000E2F780FD02C0C90102C080E090E0E82AF5
:10256000F92A220F331F4E175F0719F7F6018081F2
:102570008F3F11F00E942E1261E0E114F10409F482
:1025800060E08B2D0E942312CC0FDD1FC00FD11FE6
:10259000F982E882DF91CF911F910F91FF90EF9028
:1025A000DF90CF90BF9008950E9445128CE0E2EE3C
:1025B000F4E0DF01982F1D929A95E9F7E6EDF4E03B
:1025C000DF011D928A95E9F786E00E9434130C948E
:1025D000B503FF920F931F93CF93DF93CDB7DEB771
:1025E0002C970FB6F894DEBF0FBECDBF8E010F5FE4
:1025F0001F4F8CE0F80111928A95E9F7F12C6F2DAD
:10260000C8010E946512F394F6E0FF12F8CF4CE087
:1026100050E0B80186ED94E00E946135FF24F39408
:10262000009709F4F12C892B41F08CE0F801A6ED1C
:10263000B4E001900D928A95E1F72F2D46E062EE0D
:1026400074E086ED94E00E9435130E94BD038F2D47
:102650002C960FB6F894DEBF0FBECDBFDF91CF91A1
:102660001F910F91FF9008950895FF920F931F936C
:10267000CF93DF93F82E092F162FD72FC42F2223A5
:1026800049F081E08093C8030E941F2D9093C703F7
:102690008093C6038091C8038823D9F08091C60334
:1026A0009091C7030E94372D039798F0EF2DF02FDC
:1026B000A12FBD2F80E090E04C2F50E084179507AC
:1026C00034F4219131912D933D930196F7CF1092DF
:1026D000C803DF91CF911F910F91FF9008950E9441
:1026E000532F0E940D0F0C945F2F0E94632F0E94A6
:1026F000130F0C947D2F0E94A52C0E943A2F0E944C
:10270000FF0E0E946F130E9475130E94090FFBCFEA
:102710008091CF0380FF0BC06091690285E0689FC4
:10272000B001112475956795759567952BC081FF4C
:1027300009C06091690285E0689FB0011124759518
:10274000679520C082FF07C06091690285E0689F9D
:10275000B001112417C09091CE039923D1F060915C
:102760006802961788F72091690285E0289F9001FA
:102770001124929FA001939F500D112470E0CA0173
:102780000E94A1346038710540F46115710519F497
:1027900006C065E070E0862F08958FE7089581E018
:1027A00008958091CF0380FF08C06091650270E0BA
:1027B000759567957595679521C081FF06C06091F5
:1027C000650270E07595679519C082FF04C060913D
:1027D000650270E010C09091CD03992399F060914B
:1027E00064029617A0F780916502899FC0011124A9
:1027F00070E00E94A1346038710540F461157105E4
:1028000019F406C061E070E0862F08958FE70895FF
:1028100081E008958D3E21F40E948813819504C0C3
:102820008E3E29F40E9488138093D30308958F3E2F
:1028300021F40E948813819504C0803F29F40E94EE
:1028400088138093D2030895893F19F40E94D1130D
:1028500005C08A3F31F40E94D11381958093D4033F
:1028600008958B3F21F40E94D113819504C08C3FC1
:1028700029F40E94D1138093D50308959FE0980F07
:10288000983078F421E030E0A90102C0440F551FD0
:102890009A95E2F7CA019091D103892B8093D103D5
:1028A00008958D3F21F48091CF0381600BC08E3F4E
:1028B00021F48091CF03826005C08F3F29F480917D
:1028C000CF0384608093CF0308958D3E39F49091B7
:1028D000D30397FF35C01092D30359C08E3E29F41D
:1028E0009091D3031916BCF32BC09091D2038F3E65
:1028F00029F497FF25C01092D20349C0803F19F4F4
:102900001916CCF31DC09091D403893F29F41916F0
:10291000BCF41092D4033BC08A3F19F497FF10C057
:10292000F8CF8B3F39F49091D50397FF09C01092EF
:10293000D5032DC08C3F21F49091D5031916BCF31B
:102940009FE0980F983080F421E030E0A90102C0A8
:10295000440F551F9A95E2F7CA0180959091D103D3
:1029600089238093D10313C08D3F21F48091CF033D
:102970008E7F0BC08E3F21F48091CF038D7F05C0E9
:102980008F3F29F48091CF038B7F8093CF03809179
:10299000D203811106C08091D303811102C010922D
:1029A000CE038091D403811106C08091D50381119B
:1029B00002C01092CD0308950E941F2D2091D203D2
:1029C000211104C02091D303222321F09093CC0342
:1029D0008093CB032091D403211104C02091D5030F
:1029E000222321F09093CA038093C90380ED93E0E2
:1029F0000C94932BEF92FF920F931F93CF93DF933F
:102A000000D000D000D0CDB7DEB786E0E0EDF3E037
:102A1000DE01119601900D928A95E1F7E090D203C4
:102A2000F090D3030091D4031091D5031092D203F8
:102A30001092D3031092D4031092D503E11003C077
:102A4000FF2009F45DC08091CB039091CC030E94DC
:102A5000372DAC019091CE03992339F020916A0271
:102A600030E02417350758F04BC020916B028AE004
:102A7000289F900111242417350718F041C09F3F6B
:102A800019F09F5F9093CE03EE2061F00E948813AF
:102A90001E1414F09FEF01C091E0989F902D112417
:102AA0009093D203FF2061F00E9488131F1414F04A
:102AB0009FEF01C091E0989F902D11249093D30334
:102AC0003091D2033323E1F02091D3032223C1F0CC
:102AD00045EB3403C0011124992319F09093D203DC
:102AE00003C081E08093D20335EB2303C00111249E
:102AF000992319F09093D30303C081E08093D3030B
:102B0000011103C0112309F45DC08091C9039091A4
:102B1000CA030E94372DAC019091CD03992339F05F
:102B20002091660230E02417350758F04BC0209101
:102B300067028AE0289F900111242417350718F0B6
:102B400041C09F3F19F09F5F9093CD03002361F038
:102B50000E94D113101614F09FEF01C091E0989FCE
:102B6000902D11249093D403112361F00E94D1136E
:102B7000111614F09FEF01C091E0989F902D112441
:102B80009093D5033091D4033323E1F02091D50302
:102B90002223C1F045EB3403C0011124992319F01D
:102BA0009093D40303C081E08093D40335EB2303D7
:102BB000C0011124992319F09093D50303C081E03B
:102BC0008093D5038091D20381110BC08091D303F0
:102BD000811107C08091D403811103C08091D50376
:102BE00081110E94DC14EB82FC820D831E8386E03F
:102BF000FE013196A0EDB3E001900D928A95E1F7C8
:102C000026960FB6F894DEBF0FBECDBFDF91CF91F1
:102C10001F910F91FF90EF900895E0EDF3E086E0B3
:102C2000DF011D928A95E9F71092CE031092CD0331
:102C30001092CF030895EF92FF920F931F93CF93BB
:102C4000DF938B01682F11110AC0442329F0E82F6C
:102C5000F0E0EC54FC4F6491762F862F75C0212F45
:102C600030E0E82FF0E0442321F0EC54FC4FE491F5
:102C7000F0E046E0049FC0011124CFEFD0E0BE0198
:102C80000E948D344BEA4603C001479F900D1124EA
:102C9000800F911D800F911D982F990F890FAE0104
:102CA000421B530B4E9FD0014F9FB00D5E9FB00D46
:102CB00011249B2F189FA0011124452F55278E0109
:102CC000041B150B0E9FA0010F9F500D1E9F500D52
:102CD00011247E01E81AF108E29E8001E39E100DA6
:102CE000F29E100D1124212F3327C21BD30BCE9F30
:102CF0009001CF9F300DDE9F300D112462307105A1
:102D0000A9F048F46115710569F061307105C9F4E5
:102D10008B2F752F0DC06430710581F058F066302F
:102D2000710579F47E2F8B2F932F0DC0832F7B2F6E
:102D30009E2F09C08E2F7B2F952F05C08E2F732FAE
:102D400002C07E2F852F692FDF91CF911F910F91A8
:102D5000FF90EF90089541E00E941B16089520E037
:102D600030E0869F212D969F200D311D1124C90131
:102D70000895BC018230910508F40895613E8EE10A
:102D8000780748F49B0195E0369527959A95E1F7E9
:102D900048E0420F01C04FEF91E0242F30E0290FAF
:102DA000311D35952795229FF001239FF00DF00DE1
:102DB00011246E177F0718F44FEF420F04C02F3F06
:102DC00039F091E0920F491740F78FEF890F08957E
:102DD0008FEF0895409172025091730225E038E020
:102DE000429FC001439F900D529F900D1124875E1A
:102DF000994C9093730280937202890F0895482F23
:102E0000982F46FD9095E92FEF739F7046FD9F5FC9
:102E1000E295EF70EE0FF0E0E550FD4F2181299F24
:102E2000802D212D112482958F702295207F822B59
:102E30003081982F930F892F47FD819580580895F1
:102E4000622F0895E42FF0E0EE0FFF1FE25AFE4FCD
:102E50006081621B0895E42FF0E0EE0FFF1FE15A3E
:102E6000FE4F6081621B0895A22F50E0FA01EE0F21
:102E7000FF1FE15AFE4F9081915297FD9195440FAB
:102E8000551FFA01E25AFE4F3081232F30E02A1BF2
:102E90003109290F311D97FD3A95620F0895EF9280
:102EA0000F931F9393E0099F8001112415950795B7
:102EB0006E2D600F1F910F91EF9008950F931F9348
:102EC000522F10E0F801EE0FFF1FE15AFE4FE08194
:102ED000F0E0B1979F015203D001539FB00D112430
:102EE000000F111FF801E25AFE4F008110E00C554F
:102EF000110940039001419F300D11242A0F3B1FFF
:102F000037FF02C021583F4F220F232F221F330BC0
:102F1000620F1F910F9108950F931F93522F10E08E
:102F2000F801EE0FFF1FE15AFE4FE081F0E0B1978C
:102F3000EE0FFF1F9F015203D001539FB00D1124CC
:102F4000000F111FF801E25AFE4F008110E00C55EE
:102F50001109000F111F40039001419F300D1124F2
:102F60002A0F3B1F37FF02C021583F4F220F232F4C
:102F7000221F330B620F1F910F9108950F931F9320
:102F800010E0F801EE0FFF1FE25AFE4F90819C55B2
:102F900097FD9195000F111FF801E15AFE4FE08156
:102FA000F0E0B197DF01AA0FBB1F8D010E0F1F1FAD
:102FB0002003D001219FB00D1124E8E3F0E0E91BCC
:102FC000F10997FDF3959F01220F331F89010E0F21
:102FD0001F1F40039001419F300D11242A0F3B1FFA
:102FE00037FF02C021583F4F220F232F221F330BE0
:102FF000620F1F910F9108950F931F93CF93DF934B
:10300000D62F072F182FC42F822F0E94FF16EC2FC8
:10301000F0E0EE0FFF1FE25AFE4F90819058890FAB
:1030200087FD8195880F682F2CE0629F612D112408
:103030006D0F702F812FDF91CF911F910F91089508
:10304000E42FF0E0EE0FFF1FE25AFE4F9081921B3B
:1030500097FD9195292F38E1239F212D1124620F8F
:1030600008954095282F429F412D1124842F0895C3
:1030700022E8241B08F420E0620F0895EF92FF92EB
:103080000F93970195E0099F200D311D11242F3FCB
:10309000310519F010F02FEF30E02095382F320F66
:1030A00008F43FEF832F0F91FF90EF900895EF9278
:1030B000FF920F93E00EF11CF90137FF03C0F19569
:1030C000E195F10924E0EE0FFF1F2A95E1F7EF3FAC
:1030D000F10519F014F0EFEFF0E09A0157FF03C08B
:1030E00031952195310994E0220F331F9A95E1F72C
:1030F0002E173F070CF4F901EE0DFF1DEF3FF10510
:1031000019F010F0EFEFF0E02E2F2095382F320F4E
:1031100008F43FEF832F0F91FF90EF900895EF9207
:10312000FF920F93972F093438F4B701601B710990
:103130006F3F710519F010F06FEF70E0485F5F4F5F
:103140004131510540F0A901485F5F4F41315105C0
:1031500010F06FEF70E06095482F460F08F44FEFC6
:10316000842F37FF02C02D5F3F4F3595279535954A
:1031700027956091EF04620F792F0F91FF90EF90E8
:103180000895EF92FF920F939701201B31092F3F73
:10319000310519F010F02FEF30E0322F3095482F25
:1031A000430F08F44FEF842F620F0F91FF90EF90C1
:1031B0000895EF92FF920F939701201B31092F3F43
:1031C000310519F010F02FEF30E02095382F320F35
:1031D00008F43FEF832F0F91FF90EF900895FC01CB
:1031E0009B01009721F477FF2BC080E80895AC0184
:1031F00097FF04C044275527481B590BB901640F9A
:10320000751F37FD0CC0241B350BC901A5E0880FC5
:10321000991FAA95E1F70E94A13480E20CC0CB016E
:1032200065E0880F991F6A95E1F7BA01621B730B7D
:103230000E94A13480E6861BF7FF03C081950895A4
:1032400080E00895FF920F931F93CF93DF93F62EA4
:10325000D72F182FC901C12FC01BBA010E94EF1828
:10326000982F990F890FC81B2C2F219F212D1124D6
:10327000822F6F2D7D2FDF91CF911F910F91FF90A6
:103280000895EF920F931F93CF93DF93D62F172FAD
:10329000C82FC9010E19070FBA010E94EF18702F2D
:1032A000781B719F712D11246D2F8C2FDF91CF9181
:1032B0001F910F91EF900895EF920F931F93CF936B
:1032C000DF93D62FC72F182FC9010E19010FBA018E
:1032D0000E94EF18081B202F219F212D1124822FDF
:1032E0006D2F7C2FDF91CF911F910F91EF9008955B
:1032F0000F93CF93DF93D72FC82FC901BA010E9434
:10330000EF18682F600F7D2F8C2FDF91CF910F91D9
:1033100008950E94AB160895EEEEF4E085E28083F6
:103320008091810290918202A09183028183928395
:10333000A3838FE784838FEF858346E050E06CE1C1
:1033400070E0CF010E94953510923804089580E016
:1033500008950F931F93CF93DF93C82FD62F8A0121
:103360000E94A7199FE0C99FF0011124EC5FFE4F56
:10337000ED0FF11D90819F3F29F0F801E80FF11D3D
:1033800090838F5FDF91CF911F910F910895E0910E
:103390000903F0910A030994E0910503F0910603F3
:1033A00009944F925F926F927F928F929F92AF9209
:1033B000BF92CF92DF92EF920F931F93CF93DF9341
:1033C0002C013B01FC01C08182E1C89FC02D11246A
:1033D000D2E1DC0FD73508F0D6E56091F2046695AE
:1033E0008091F4049091F5040E94AF16182FCD1728
:1033F00008F044C08C2E912CF401E65FFD4F9081C3
:10340000F20181818923C1F1F401EE0FFF1FE25A1D
:10341000FE4FC080D12CFCE5CF1AD108F401EE0F8D
:10342000FF1FE15AFE4FA080B12C81E2A81AB1081B
:10343000CC9C9001CD9C300D300D1124AA9CC00174
:10344000AB9C900D900D1124820F931F0E94B91612
:10345000082F6091EF047091F0048091F104E12E47
:103460009501A601F30109950E948919462F282F7D
:10347000672FC4010E94CC19CF5FB9CF81E0D63548
:1034800008F080E0DF91CF911F910F91EF90DF90D6
:10349000CF90BF90AF909F908F907F906F905F90F4
:1034A0004F90089561E479E10C94D1196CE579E1CC
:1034B0000C94D1196FE477E10C94D119AF92BF92BB
:1034C000CF92DF92EF92FF920F931F93CF93DF93F0
:1034D0006C015B01FC01C08182E1C89FC02D1124F9
:1034E000D2E1DC0FD73508F0D6E56091F20466959D
:1034F0008091F4049091F5040E94AF16182FCD1717
:1035000078F5EC2EF12CF701E65FFD4F9081F60186
:103510008181892319F1F701EE0FFF1FE15AFE4F58
:10352000208130E021523109F701EE0FFF1FE25AEE
:10353000FE4F408150E04C5551096091EF0470916D
:10354000F0048091F104012FF50109950E94891979
:10355000462F282F672FC7010E94CC19CF5FCFCFEE
:1035600081E0D63508F080E0DF91CF911F910F9177
:10357000FF90EF90DF90CF90BF90AF90089562E200
:1035800079E10C945E1A68E779E10C945E1ABF92B7
:10359000CF92DF92EF92FF920F931F93CF93DF931F
:1035A0008C017B01FC01C08182E1C89FC02D1124E8
:1035B000D2E1DC0FD73508F0D6E56091F2046695CC
:1035C000669521E0620F08F46FEF8091F40490910A
:1035D000F5040E94AF16B82ECD17F0F4CC2ED12CE6
:1035E000F601E65FFD4F9081F8018181892391F01A
:1035F0006091EF047091F0048091F1042B2D4C2F19
:10360000F70109950E948919462F282F672FC601B7
:103610000E94CC19CF5FE0CF81E0D63508F080E082
:10362000DF91CF911F910F91FF90EF90DF90CF909E
:10363000BF90089560E277E10C94C71A62E277E1E7
:103640000C94C71A6BE277E10C94C71A64E377E134
:103650000C94C71A6CEF77E10C94C71A60E278E11A
:103660000C94C71A7F928F929F92AF92BF92CF9283
:10367000DF92EF92FF920F931F93CF93DF936C0132
:103680005B01FC01C08182E1C89FC02D1124D2E101
:10369000DC0FD73508F0D6E56091F20466956695A3
:1036A0008091F4049091F5040E94AF16182F80E4E5
:1036B000810F0E94FF1690E8F92EF80E812F0E94CC
:1036C000FF1620E8722E780ECD1700F58C2E912C67
:1036D000F401E65FFD4F9081F60181818923A1F01D
:1036E0006091EF047091F0048091F104E12E0C2FB1
:1036F000272D4F2DF50109950E948919462F282F56
:10370000672FC4010E94CC19CF5FDECF81E0D63590
:1037100008F080E0DF91CF911F910F91FF90EF9023
:10372000DF90CF90BF90AF909F908F907F90089543
:103730006EE577E10C94321B6CE877E10C94321B58
:103740006EEB77E10C94321BAF92BF92CF92DF9277
:10375000EF92FF920F931F93CF93DF938C017B0126
:10376000FC01C08182E1C89FC02D1124D2E1DC0F91
:10377000D73508F0D6E52091F20431E0230F08F4A4
:103780002FEF30E040E050E06FEF7FEF80E090E01F
:103790000E94D7346901CD1708F041C0AC2EB12C7E
:1037A000F501E65FFD4F9081F80181818923A9F140
:1037B0009091F804915097FD15C0292F092E000C07
:1037C000330BF901E850FB4F8189C813F3CF220F67
:1037D000331FF901E850FB4F218D328D2C153D052B
:1037E00048F701C096016091F20441E0640F08F4CB
:1037F0006FEFC9010E94AF16AC016091EF047091A8
:10380000F0048091F104F70109950E948919462F6F
:10381000282F672FC5010E94CC19CF5FBCCF81E054
:10382000D63508F080E0DF91CF911F910F91FF9086
:10383000EF90DF90CF90BF90AF90089561E378E173
:103840000C94A41B68E378E10C94A41B2F923F9284
:103850004F925F926F927F928F929F92AF92BF92A0
:10386000CF92DF92EF92FF920F931F93CF93DF934C
:10387000CDB7DEB729970FB6F894DEBF0FBECDBF28
:103880008B834B013A01DB011C9182E1189F102DC3
:103890001124B2E1B10FB983B73510F0E6E5E98341
:1038A000F091F804FA838981181708F07FC0A12EDF
:1038B000B12CF501E65FFD4F9081D40111968C91FA
:1038C000892309F471C02090EF043090F0044B80FC
:1038D000512CC501880F991FFC01E25AFE4FFD8350
:1038E000EC83C501880F991F9C01215A3E4F3F83ED
:1038F0002E83FA814F1608F047C0E42CF12CAC81DE
:10390000BD81BC91EB2FF0E0F987E887F701E85023
:10391000FB4F818128853985281B31093987288704
:10392000AE81BF81CC90D12C8185C81AD108F90114
:10393000EE9F9001EF9F300D300D1124CC9CC00103
:10394000CD9C900D900D1124820F931F0E94B916EB
:10395000082F6091F20421E0620F08F46FEFF70185
:10396000EE0FFF1FE850FB4F818D928D0E94AF1626
:103970007C01960148855985B101852DF301099592
:103980001B014394582EB5CF2091F104352D329F61
:10399000312D1124832FB1010E948919462F282F20
:1039A000672FC5010E94CC191F5F7DCF81E09981EF
:1039B000963508F080E029960FB6F894DEBF0FBE6A
:1039C000CDBFDF91CF911F910F91FF90EF90DF90CE
:1039D000CF90BF90AF909F908F907F906F905F90AF
:1039E0004F903F902F9008954EE358E1BC0180E046
:1039F0000C94261C47E558E1BC0180E00C94261C81
:103A00002091F80431E0231B08F420E04FE858E14E
:103A1000BC01822F0C94261C4FE858E1BC0180E0C9
:103A20000C94261C2091F80431E0231B08F420E0BC
:103A300041EC58E1BC01822F0C94261C41EC58E16A
:103A4000BC0180E00C94261C2091F80431E0231B7B
:103A500008F420E049ED58E1BC01822F0C94261CAB
:103A600049ED58E1BC0180E00C94261CDF92EF92F6
:103A7000FF920F931F93CF93DF938C01DC018C9106
:103A8000C2E18C9FC02D1124D2E1DC0FD73508F0A4
:103A9000D6E56091EF047091F0048091F1040E94EA
:103AA0008919F62EE72ED82ECD1798F4EC2FF0E0DA
:103AB000DF01A65FBD4F8C91D80111969C91982390
:103AC00031F02D2D4F2D6E2DCF010E94CC19CF5FDF
:103AD000EBCF81E0D63508F080E0DF91CF911F91E8
:103AE0000F91FF90EF90DF900895AF92BF92CF9229
:103AF000DF92EF92FF920F931F93CF93DF938C018E
:103B0000FC01C08182E1C89FC02D1124D2E1DC0FED
:103B1000D73508F0D6E5E090F004F090F104D090AD
:103B2000EF046D2D7E2D8F2D0E948919C62EB72E84
:103B3000A82E6091F2046D0D7E2D8F2D0E948919A3
:103B4000F62EE72ED82ECD17B8F48C2F90E0FC017E
:103B5000E65FFD4F3081F8012181232359F030FFCA
:103B600004C02D2D4F2D6E2D03C02A2D4C2D6B2DF5
:103B70000E94CC19CF5FE7CF81E0D63508F080E016
:103B8000DF91CF911F910F91FF90EF90DF90CF9039
:103B9000BF90AF900895BF92CF92DF92EF92FF92C5
:103BA0000F931F93CF93DF937C01FC01C08182E1CF
:103BB000C89FC02D1124D2E1DC0FD73508F0D6E51F
:103BC000C090F004B090F1042091F20430E4D32EC0
:103BD0003D2D329F312D1124D32ECD1738F50C2FCA
:103BE00010E0F801E65FFD4F9081F70181818923A4
:103BF000D9F0F801EE0FFF1FE25AFE4F6081D69E0A
:103C0000B001112495E0759567959A95E1F780913B
:103C1000EF04680F7C2D8B2D0E948919462F282FC9
:103C2000672FC8010E94CC19CF5FD7CF81E0D6356E
:103C300008F080E0DF91CF911F910F91FF90EF90FE
:103C4000DF90CF90BF900895DF92EF92FF920F9395
:103C50001F93CF93DF938C01DC01CC9182E1C89F4D
:103C6000C02D1124D2E1DC0FD73508F0D6E5E09065
:103C7000EF04F090F004D090F1046091F2046695A6
:103C8000669566958091F4049091F5040E94AF16B4
:103C90000E94FF16805887FD8195880F282F3D2DA3
:103CA000239F212D1124822FB7010E948919F62EFE
:103CB000E72ED82ECD1798F4EC2FF0E0DF01A65FA9
:103CC000BD4F8C91D80111969C91982331F02D2DE8
:103CD0004F2D6E2DCF010E94CC19CF5FEBCF81E02D
:103CE000D63508F080E0DF91CF911F910F91FF90C2
:103CF000EF90DF900895DF92EF92FF920F931F9362
:103D0000CF93DF93EC01FC01E65FFD4F90816923C7
:103D100081F1D090F0040091F1041091EF04E12EB4
:103D2000F12C0E944835282FC7018C549F4F68E61C
:103D300071E00E94A1348E199F0997FD0396959515
:103D40008795959587952370612F289F600D112485
:103D50007D2D802F0E948919462F282F672FCE0195
:103D6000DF91CF911F910F91FF90EF90DF900C9416
:103D7000CC19DF91CF911F910F91FF90EF90DF90C1
:103D80000895CF92DF92FF920F931F93CF93DF930B
:103D90008C01FC01C281C1111DC06091F20420E1BF
:103DA000620F08F46FEF8091F4049091F5040E9483
:103DB000AF166AE070E00E948D34892B59F50E949D
:103DC000483566E570E00E94A134F80161810E94E7
:103DD0007B1E20C0FC018081C2E18C9FC02D11247C
:103DE00092E1F92EFC0EF6E5FF1510F486E5F82EAB
:103DF000D0E0CF2CD12CCC15DD053CF4F80161814D
:103E0000CE010E947B1E2196F6CFC1E0F5E5FF159D
:103E100008F4C0E08C2FDF91CF911F910F91FF909C
:103E2000DF90CF9008951F93CF93DF93FC01E65F5F
:103E3000FD4F20816223D1F0EC010E944835182FFC
:103E40000E9448358F77782F20E8720F08F47FEFB3
:103E5000612F8091F1040E948919462F282F672F26
:103E6000CE01DF91CF911F910C94CC19DF91CF91AE
:103E70001F910895CF92DF92FF920F931F93CF93DC
:103E8000DF938C01FC01C281C1111DC06091F2045D
:103E900020E1620F08F46FEF8091F4049091F50433
:103EA0000E94AF1665E070E00E948D34892B59F5B1
:103EB0000E94483566E570E00E94A134F8016181F6
:103EC0000E94131F20C0FC018081C2E18C9FC02D85
:103ED000112492E1F92EFC0EF6E5FF1510F486E5AB
:103EE000F82ED0E0CF2CD12CCC15DD053CF4F80118
:103EF0006181CE010E94131F2196F6CFC1E0F5E546
:103F0000FF1508F4C0E08C2FDF91CF911F910F9126
:103F1000FF90DF90CF900895DF92EF92FF920F9382
:103F20001F93CF93DF938C01DC01CC9182E1C89F7A
:103F3000C02D1124D2E1DC0FD73508F0D6E5E09092
:103F4000F004F090F104D090EF046091F2046695D3
:103F5000669566958091F4049091F5040E94AF16E1
:103F60000E94FF16805887FD8195880F682F2CE0EE
:103F7000629F612D11246D0D7E2D8F2D0E94AB1639
:103F8000F62EE72ED82ECD1798F4EC2FF0E0DF01B7
:103F9000A65FBD4F8C91D80111969C91982331F06A
:103FA0002D2D4F2D6E2DCF010E94CC19CF5FEBCF61
:103FB00081E0D63508F080E0DF91CF911F910F911D
:103FC000FF90EF90DF900895E0910703F0910803D0
:103FD0000994CF92DF92FF920F931F93CF93DF93B9
:103FE000CDB7DEB728970FB6F894DEBF0FBECDBFB2
:103FF000182F062FF42E0E94EE0E882309F46FC0AE
:10400000FF2049F0AE014F5F5F4F602F812F0E946C
:10401000A919F82E01C0F12C0F2D10E08091390460
:104020009801280F311D293031056CF188E090E0AE
:104030006C01C01AD10AB801665C7B4FA6018AE305
:1040400094E00E946E35B8016E5B7B4FA60182E45E
:1040500094E00E946E35A601440F551FB801660F0B
:10406000771F6E5A7B4F82E594E00E946E35B8014F
:10407000665B7B4FA6018AE494E00E946E3588E07F
:104080008F198093390410913904DE01119640E0B4
:10409000842F810FF41609F190E05D91252F30E017
:1040A000BC01675C7B4FF901EE0FFF1FE25AFE4F28
:1040B0000081FB010183220F331FF901E15AFE4FFA
:1040C0002081FB012187518B880F991FFC01E75C40
:1040D000FB4F128E118E4F5FDBCF809339042896F1
:1040E0000FB6F894DEBF0FBECDBFDF91CF911F9109
:1040F0000F91FF90DF90CF9008958091F4049091FC
:10410000F504A091F604B091F70488279C70AA27C3
:10411000BB272AE0B695A795979587952A95D1F75D
:1041200082309105A105B10571F083309105A1059B
:10413000B10569F040E00197A105B10511F060E01B
:1041400008C064E102C044E160E080E003C044E1F3
:1041500064E184E10C94E41F5F926F927F928F92EE
:104160009F92AF92BF92CF92DF92EF92FF920F9306
:104170001F93CF93DF93C82F809170028C130DC0D3
:104180002091EE04237030E04091710250E081E014
:104190002417350719F480E001C081E08170809315
:1041A0006F028091F30490916E02981739F080931A
:1041B0006E0240E060E080E00E94E41FC13111F532
:1041C0008DE692E00E94C11E09C0C43008F05FC0B5
:1041D000C13061F58DE692E00E94361D90916D022E
:1041E0009F5F90936D02811136C282E080936C02D2
:1041F00080916F0281112FC2C1112DC283E0809383
:104200006C0229C2C23108F09CC0C83029F48DE686
:1042100092E00E941A1BE2CFC93008F05AC0C330A6
:10422000A1F68DE692E00E94CB1DD8CFC23050F4AB
:1042300080916F02882349F140E060E080E00E94B5
:10424000E41F23C08DE692E00E94751DC7CFC631E2
:1042500008F489C0C73109F499C008F0B5C140918C
:104260003404509135046091360470913704809184
:10427000F4049091F504A091F604B091F70484172A
:104280009507A607B70708F048C180E0A7CFC5305B
:1042900029F48DE692E00E94BF1AA0CFC53028F421
:1042A0008DE692E00E94241E99CFC63029F48DE657
:1042B00092E00E94521A92CFC73029F48DE692E024
:1042C0000E94561A8BCF80916D028F5F80936D0292
:1042D0008CCFCC3029F48DE692E00E945A1A7ECF22
:1042E000CD3098F4CA3029F48DE692E00E94221B6A
:1042F00075CFCB3028F48DE692E00E941E1B6ECF66
:104300008DE692E00E94261B69CFCE3029F48DE61F
:1043100092E00E94981B62CFCE3028F48DE692E0A6
:104320000E94C31A5BCFCF3029F48DE692E00E9441
:104330009C1B54CFC03139F68DE692E00E94A01B41
:104340004DCFCA3129F48DE692E00E94F41C46CF8D
:10435000CB3108F048C1C53109F079CF8DE692E044
:104360000E942E1B3BCFC33129F48DE692E00E94C0
:104370008C1F34CFC43128F48DE692E00E943A1F9E
:104380002DCF8DE692E00E942A1B28CF4091300469
:104390005091310460913204709133048091F4049F
:1043A0009091F504A091F604B091F7048417950755
:1043B000A607B70708F469CF6091EF047091F00485
:1043C0008091F1040E948919D62F772E682E96EDE0
:1043D000E92E93E0F92E04E011E02EE5A22E21E073
:1043E000B22E4701C12CD12CF4018081F801EC0DD3
:1043F000FD1D882329F08081262D4D2F672D04C0B7
:10440000808120E040E060E090E00E94CC19F4015F
:10441000818181934F01FFEFCF1ADF0A86E0C81632
:10442000D10411F7480167018EE0582EF601868508
:10443000F401882329F08685262D4D2F672D04C091
:10444000868520E040E060E090E00E94CC19F60113
:10445000858586875A94F1E0CF1AD10881E0881AC1
:104460009108E7E05E12E2CFF7018781F801882327
:1044700029F08781262D4D2F672D04C0878120E0EC
:1044800040E060E090E00E94CC19F7018681F801DD
:10449000882329F08681262D4D2F672D04C0868123
:1044A00020E040E060E090E00E94CC190E94EA1613
:1044B000837091E009F090E0F70196839783FFE025
:1044C000EF0EF11C015F1F4FA016B10609F089CF56
:1044D0002091F20430E1230F08F42FEF60E1822FE6
:1044E00090E00E94AF16BC0188EB9BE00E948D34E7
:1044F0008091F4049091F504A091F604B091F70432
:10450000860F971FA11DB11D809330049093310435
:10451000A0933204B0933304B8CE0E94EA16D82F89
:104520000E94EA1696E5891BF0F7890F082F10E024
:10453000F801E65FFD4F90916E028081892309F4B6
:1045400041C0D1FF04C020E040E060E013C00E9401
:10455000EA16D82F0E94EA168695782F2FE7720F59
:1045600008F47FEF6D2F8091F1040E948919462F86
:10457000282F672FC8010E94CC192091F20430E146
:10458000230F08F42FEF60E1822F90E00E94AF1616
:10459000BC0184EF91E00E948D348091F4049091ED
:1045A000F504A091F604B091F704860F971FA11DA2
:1045B000B11D8093340490933504A0933604B093D6
:1045C000370463CE81E00ACEC83129F48DE692E04B
:1045D0000E941E1C03CEC93109F075CE8DE692E013
:1045E0000E94221CFBCDCE3129F48DE692E00E9480
:1045F000121DF4CDCF3198F4CC3129F48DE692E040
:104600000E94001DEBCDCD3128F48DE692E00E9492
:10461000FA1CE4CD8DE692E00E940C1DDFCDC03285
:1046200029F48DE692E00E94241DD8CDC03228F4F2
:104630008DE692E00E941E1DD1CDC13229F48DE697
:1046400092E00E94301DCACDCF3F09F03CCE0E94BF
:104650007D2082E0D4CDDF91CF911F910F91FF900B
:10466000EF90DF90CF90BF90AF909F908F907F9012
:104670006F905F90089508950C943B230E943C2313
:104680000C94570308950C944223CF93DF93FC01BD
:10469000C081C15082E1C89FC02D1124D2E1DC0F3E
:1046A000D73508F0D6E56D2F8C2F0E9443236D2F50
:1046B0008C2FDF91CF910C9442234F925F926F9297
:1046C0007F928F929F92AF92BF92CF92DF92EF92A2
:1046D000FF92CF93609162047091630480916404AF
:1046E000909165040E94462D6B017C010E942B2D48
:1046F0004B015C01609362047093630480936404D3
:1047000090936504A0913904E9E3F4E08A2F90E0E6
:104710004FEF5FEF60E070E04C195D096E097F09B3
:10472000A91799F0218D328D2901612C712C441526
:1047300055056605770510F4815004C02C0D3D1D0C
:10474000328F218F9F5F3296EBCF80933904809117
:104750006604811108C0C091EE048C2F837019F09B
:10476000C695C69501C0C0E080916C028130D9F039
:1047700028F0823089F18330E1F15AC010926D0245
:104780008092F4049092F504A092F604B092F7049B
:1047900089E2E9E3F4E0A8EFB4E001900D928A9594
:1047A000E1F781E023C08C2F0E94AC20CC2309F4D8
:1047B0003FC00E943E238DE692E0CF91FF90EF90A4
:1047C000DF90CF90BF90AF909F908F907F906F9031
:1047D0005F904F900C944523C09370028091EE043B
:1047E0008370809371020E94C71983E080936C02EA
:1047F0001FC080913804882351F046E050E06CE1FE
:1048000070E08EEE94E00E9495351092380460912D
:10481000F4047091F5048091F6049091F7040E94DD
:10482000462D603171058105910510F010926C02E2
:10483000CF91FF90EF90DF90CF90BF90AF909F907F
:104840008F907F906F905F904F900895E091030359
:10485000F091040309951092F804E1E1F5E08FEF7F
:104860009FEF8193919325E0E132F207D1F7109207
:104870003904E2E5F4E08FEF9FEF8193919324E018
:10488000E236F207D1F70E94250E811104C00E9482
:10489000CD0E0E948C1946E050E06CE170E08EEE87
:1048A00094E00E947735109238048091EE048C7F5A
:1048B00011F40C948C190895CF93C82F882391F08C
:1048C0008091660481110EC00E94AC20109270028B
:1048D0008091EE048370809371020E94C71983E077
:1048E00080936C02C0936604CF910895EEEEF4E0DD
:1048F000208191E09227908310926C02909138046D
:10490000892B80933804089581E00C94762490914B
:10491000EE049370A1F0811102C0946007C082324E
:1049200010F0946803C0880F880F982B9093EE04C2
:1049300010926C0280913804682B609338040895BB
:1049400061E00C948724682F9091EE0496959695DB
:104950009F5F923210F4892F01C081E00C9487246C
:1049600081E00C94A324682F9091EE04969596957F
:10497000915011F0892F01C081E20C94872481E0CD
:104980000C94B3249091EE04937071F08093EF0433
:104990006093F004493C08F048EC4093F1048091A6
:1049A0003804282B209338040895AEEEB4E0119615
:1049B000EC911197F0E0282F13964C9113971296D3
:1049C0006C91CF0108960C94C22481E00C94D524FC
:1049D000AEEEB4E01196EC911197F0E0282F13960B
:1049E0004C91139712966C91CF0108970C94C224A6
:1049F00081E00C94E824EEEEF4E0628120E1620FA5
:104A000008F46FEF9181282F4381892F90E00C9457
:104A1000C22481E00C94FB24EEEEF4E0628120E1FC
:104A2000621B08F460E09181282F4381892F90E078
:104A30000C94C22481E00C940C25EEEEF4E043814A
:104A400020E1420F08F44FEF9181282F6281892FD6
:104A500090E00C94C22481E00C941D25EEEEF4E06D
:104A6000438120E1421B08F440E09181282F6281BC
:104A7000892F90E00C94C22481E00C942E25809321
:104A8000F20480913804682B6093380408952091D3
:104A9000F20430E1230F08F42FEF682F822F0C94DB
:104AA0003F2581E00C9447252091F20430E1231B3F
:104AB00008F420E0682F822F0C943F2581E00C94AD
:104AC000542560E084E70E946E2761E086E70E943B
:104AD0006E2762E085E70C946E27CF930E94822AAE
:104AE00084E70E94C12586E70E94C12585E70E94D0
:104AF000C125C0E021E041E061E08C2F0E947226D8
:104B0000CF5FC635B9F760E084E70E94862761E091
:104B100086E70E94862762E085E7CF910C9486277E
:104B2000E1EDF6E06083418324E630E042E050E0CE
:104B3000BF01880F0C94392B0F931F93CF93DF93F2
:104B4000082F000FEB0114E21093D106E2EDF6E01E
:104B5000DE018D91819386E0E23EF807D1F724E6ED
:104B600030E041E150E061ED76E0802F0E94392B8A
:104B7000105F6096143B41F7DF91CF911F910F9129
:104B80000895CF93DF93C82F4BE06DEF0E949025DF
:104B900040E06AE08C2F0E9490258FE39CE901970A
:104BA000F1F700C0000040E060E08C2F0E949025EB
:104BB00040E061E08C2F0E94902540E066E08C2F61
:104BC0000E94902540E06DEF8C2F0E949025D0E050
:104BD00040E06D2F8C2F0E949025DF5FD231C1F70E
:104BE00040E06D2F8C2F0E949025DF5FD432C1F7FB
:104BF00040E06D2F8C2F0E949025DF5FD43BC1F7E2
:104C00004BE06DEF8C2F0E94902541E06AE08C2FE5
:104C10000E94902540E06DEF8C2FDF91CF910C9496
:104C20009025FF920F931F93CF93DF9300D000D076
:104C3000CDB7DEB78635910588F5122F042FF62EF5
:104C4000BC01660F771F660F771F6C507F4F44E0E3
:104C500050E0CE0101960E945835898183704A81C7
:104C6000282F30E050E9859FC00111248F5D9A4FB5
:104C7000FC01E40FF11DB497F0824B81FC01E40FBD
:104C8000F11DB49700834C81840F911DFC01B497F2
:104C90001083F901E056FB4F81E080830F900F9065
:104CA0000F900F90DF91CF911F910F91FF9008957A
:104CB000FF920F931F93CF93DF93182F062FF42E9D
:104CC000C0E0D0E02F2D402F612FCE010E94112691
:104CD0002196C635D105B1F7DF91CF911F910F9184
:104CE000FF9008955F926F927F928F929F92AF9202
:104CF000BF92CF92DF92EF92FF920F931F93CF93C9
:104D0000DF9300D000D0CDB7DEB7862E942E522E82
:104D100024E0829FC0011124BC016C507F4F44E00D
:104D200050E0CE0101960E9458352A8130E0C90139
:104D30008497FC0197FD379673E0F595E7957A9592
:104D4000E1F74B8150E08A0104521109980117FFE5
:104D500002C0295F3F4F63E0359527956A95E1F7DB
:104D60004C8150E05A0164E2A61AB1083501B7FE41
:104D700004C03A017DE1671A710843E075946794B5
:104D80004A95E1F758E0C52ED12CB6010E94A13416
:104D90007C01C801B6010E94A1348C01C501B60195
:104DA0000E94A134FF274981FF24542F537088208B
:104DB00081F062E1569FE00DF11D1124E659FB4F91
:104DC00061E070E001C0660FEA94EAF75081652B5C
:104DD00010C072E1579FE00DF11D1124E659FB4F01
:104DE00061E070E001C0660FEA94EAF760955081D7
:104DF0006523608333271127542F5370992089F03E
:104E000062E1569F200D311D1124F901E659FB4F37
:104E100021E030E001C0220F0A95EAF73081232B10
:104E200011C072E1579F200D311D1124F901E6597F
:104E3000FB4F21E030E001C0220F0A95EAF72095F0
:104E400030812323208377249927942F9370930113
:104E50005520A1F052E1959F200D311D1124F9013B
:104E6000E659FB4F21E030E0B90102C0660F771F21
:104E70008A95E2F7CB019081892B14C072E1979F4C
:104E8000200D311D1124F901E659FB4F21E030E0DE
:104E9000B90102C0660F771F8A95E2F7CB018095B2
:104EA0009081892380834370E42FF0E0E959FB4F20
:104EB00081E080830F900F900F900F90DF91CF9142
:104EC0001F910F91FF90EF90DF90CF90BF90AF9028
:104ED0009F908F907F906F905F900895CF93DF9316
:104EE000262F30E0E901C056DB4F9881992351F01D
:104EF00090E9929FB001939F700D11246F5D7A4FDE
:104F00000E949C251882DF91CF910895DF92EF9245
:104F1000FF920F931F93CF93DF93262F30E0A901C9
:104F200049595B4F7A01FA01908191110AC0F7014A
:104F30001082DF91CF911F910F91FF90EF90DF9042
:104F40000895D82EF2E16F9FE001112400E010E0F7
:104F5000F801EC0FFD1FE659FB4F4081602F8D2DAE
:104F60000E9490250F5F1F4F0231110589F7DFCF97
:104F7000882311F0FA0101C0FB0109941F93CF931C
:104F8000DF93FB011281112309F48CC0EC010E9414
:104F9000490D8272CB3CFCE5DF0709F46EC048F591
:104FA000C63CECE5DE0709F454C070F4C43C9CE553
:104FB000D90709F442C008F045C0C33CDC4509F0FC
:104FC00074C00E94842470C0C83C9CE5D90709F4D1
:104FD0004AC008F443C0C93CFCE5DF0709F448C0F7
:104FE000CA3CDC4509F061C04CE355E26BE275E276
:104FF0002DC0C03DECE5DE0709F450C088F4CD3C7F
:105000009CE5D90709F443C0E8F1CE3CFCE5DF0795
:1050100009F442C0CF3CDC4509F047C084E03FC002
:10502000C73D9CE5D90728F4C23DDC45E8F58DE095
:1050300036C0CE35DD45C1F138C04FEB54E260EBF0
:1050400074E204C040EB54E26FEB74E20E94B827B4
:105050002BC048EF54E265EE74E2F8CF45EE54E21F
:1050600068EF74E2F3CF4AE155E269E075E2EECF12
:1050700049E055E26AE175E2E9CF4BE255E26CE3C3
:1050800075E2E4CF4EE555E261E575E2DFCF41E53B
:1050900055E26EE575E2DACF81E001C089E00E9459
:1050A000A02402C011E001C010E0812FDF91CF9158
:1050B0001F910895CF93DF93EC01FB018281882338
:1050C00009F426C1C430FDE5DF0760F4CB3F9CE561
:1050D000D90768F49E0122503C452431310508F07F
:1050E00018C105C0C236EDE5DE0709F012C10E9405
:1050F000380E9093D5048093D404C031FCE5DF07CB
:1051000009F4CAC008F041C0C8309CE5D90709F4C9
:10511000A4C0F0F4C430FCE5DF0709F48CC068F4E7
:10512000C2309CE5D90709F482C0C330DC4509F0E0
:10513000E5C08091D4048260DFC0C630FCE5DF07A3
:1051400009F483C008F085C08091D4048860D4C07D
:10515000CC309CE5D90709F490C068F4CA30FCE56E
:10516000DF0709F47EC008F084C00E94ED0780913B
:10517000D4048068C1C0CE309CE5D90709F481C051
:1051800008F086C08091D40494C0CD3FFCE5DF07D1
:1051900009F47BC038F5C4319CE5D90709F49AC0FD
:1051A00058F4C231FCE5DF0709F47AC008F07EC08C
:1051B0008091D4048F7BA0C0CB3F9CE5D907F1F14F
:1051C00008F03FC0C531DC4509F098C08091D40497
:1051D00082FB222720F991E0922790FB82F990FB35
:1051E00083F98AC0C1308DE5D80709F467C050F44F
:1051F0008091D504CF3FECE5DE07C1F108F05BC03C
:105200008D7F65C0C3308DE5D80709F471C008F4FF
:105210006DC0C236DD4509F071C08091D40484FBB5
:10522000222720F991E0922790FB84F965C08091B4
:10523000D404816061C08091D40416C08091D504EB
:1052400016C08091D504826042C08091D4048061F0
:1052500053C08091D40480624FC08091D404806494
:105260004BC08091D4048860846046C082608160B5
:105270002EC08091D4048E7F3FC08091D4048D7F56
:105280003BC08091D404877F37C08091D50414C07F
:105290008091D4048F7E30C08091D4048F7D2CC047
:1052A0000E94ED078091D4048F7726C08091D404AA
:1052B000877F8B7F21C08D7F8E7F09C08091D50431
:1052C000982F909591708E7F892B90FB81F9809318
:1052D000D50414C00E94ED078091D40487FB2227D7
:1052E00020F991E0922790FB87F906C081E001C088
:1052F00080E00E94CF0E02C08093D4048091D40439
:105300009091D5040E94490E0E94ED0780E001C0F3
:1053100081E0DF91CF910895CF93DF9386319C4553
:1053200041F5EB010E94490D982F8A81209162027C
:1053300030916302882379F09A7A81E009F480E061
:105340008093A304911102C069E201C065E3C90121
:105350000E94632C0AC08091A304811102C069E2FB
:1053600001C065E3C9010E946E2C0E948E0D80E091
:1053700001C081E0DF91CF9108950F931F93CF93E8
:10538000DF93C42FD22FFC0182818823C9F0409380
:10539000A6040E941F2D9093A5048093A40480E28C
:1053A0008C0F883008F057C0C77081E001C0880FAB
:1053B000CA95EAF7DF91CF911F910F910C944805A0
:1053C0008091A604481330C08091A4049091A50454
:1053D0000E94372D883C910538F510E21D0FCD173E
:1053E000B9F080E28C0F883040F4C77081E001C0D2
:1053F000880FCA95EAF70E944F05183028F581E01A
:105400009D2F977001C0880F9A95EAF70E94480572
:10541000802F0E943F051830F0F4D77081E001C062
:10542000880FDA95EAF70AC080E28C0F883098F48A
:10543000C77081E001C0880FCA95EAF7DF91CF916C
:105440001F910F910C944F05802FDF91CF911F91E9
:105450000F910C943F05DF91CF911F910F9108950B
:105460000F939C01CB01243F4CE5340731F188F4C4
:10547000293DFCE53F07D9F02A3D4CE5340779F199
:10548000283D3C45A9F506E221EE41EE68ED7CE5BC
:105490002BC0263FFCE53F07E1F0A8F0273F3C4545
:1054A00039F507E225EE46EE67EF7CE51DC007E221
:1054B00025EE45EE69ED7CE517C006E221EE40EEF3
:1054C00064EF7CE511C007E225EE44EE65EF7CE574
:1054D0000BC006E221EE42EE66EF7CE505C008E275
:1054E00021E045EE6AED7CE50E94BD2980E008C020
:1054F000FC018281882319F01092A60401C081E08A
:105500000F9108951092B9008CE08093B80008952F
:105510009F92AF92BF92CF92DF92EF92FF920F9342
:105520001F93CF93DF93B82EEB010E941F2D6C01C8
:10553000C431D10558F0CF3F8FEFD80759F0CE01D5
:1055400064E170E00E948D347B0107C0EE24E39497
:10555000F12C03C025E0E22EF12C84E8A82E94EA79
:10556000992E1092BC009092BC000E941F2D8C01BD
:105570008091BC0087FD08C00E941F2D801B910BED
:105580008E159F05A8F32AC08091B900887F8830C6
:1055900041F08091B900887F803119F00FEF1FEF43
:1055A0001FC0B092BB00A092BC000E941F2D8C01B6
:1055B0008091BC0087FD08C00E941F2D801B910BAD
:1055C0008E159F05A8F30AC08091B900887F8831A5
:1055D00011F0803419F700E010E00EC00EEF1FEF5D
:1055E000CF3F8FEFD80709F4BCCFC6010E94372DFB
:1055F0008C179D0708F4B5CFC801DF91CF911F919B
:105600000F91FF90EF90DF90CF90BF90AF909F9061
:1056100008950F931F93CF93DF93EB018093BB000B
:1056200084E88093BC000E941F2D8C018091BC00F7
:1056300087FD0EC0CF3F8FEFD807C1F30E941F2D0B
:10564000801B910B8C179D0788F38EEF9FEF0CC08A
:105650002091B900287F81E090E0283211F480E0A9
:1056600090E0919581959109DF91CF911F910F91D4
:105670000895CF92DF92EF92FF920F931F93CF93F3
:10568000DF936B018A017901B9010E94882AE60142
:105690000C0D1D1DC017D10761F424E92093BC0037
:1056A000DF91CF911F910F91FF90EF90DF90CF90FE
:1056B000089597FDF2CFB70189910E94092BEACF97
:1056C00090930D0380930C0308959093AC04809302
:1056D000AB040895E091AB04F091AC04309721F055
:1056E0000190F081E02D099480E008950E946A2BDA
:1056F0000895E091AB04F091AC04309799F02091BB
:105700008002222359F02091D40427FF07C0DC0136
:105710002C9111962C93119726E02C930280F38103
:10572000E02D09940895E091AB04F091AC0430971A
:1057300039F022E0DC012C930480F581E02D0994FE
:1057400008952091A9043091AA042817390771F00F
:105750009093AA048093A904E091AB04F091AC0467
:10576000309721F00680F781E02D0994089520916B
:10577000A7043091A8042817390771F09093A80462
:105780008093A704E091AB04F091AC04309721F032
:105790000084F185E02D09940895FC0132968091F2
:1057A0008002882331F08091D40487FF02C09EE1FB
:1057B00001C096E080E0915028F021912223D9F396
:1057C0008F5FF9CF0895662351F120918002222343
:1057D000E9F02091D40427FF19C0462F469546953D
:1057E00046954E31E0F4677021E030E002C0220FB0
:1057F000331F6A95E2F7FC01E40FF11D828190E00E
:105800002823392381E0232B69F409C0FC01329657
:1058100008962191621729F0E817F907D1F780E07F
:10582000089581E008959C01FC0132969FEF80E08D
:105830004191461789F09F3F19F4411101C0982FFB
:105840008F5F8630A9F79F3F39F0F901E90FF11D0D
:1058500097FDFA956283089508959C012A5F3F4F52
:10586000FC014281461301C0128201968217930700
:10587000B9F70895262F2695269526952E3168F49A
:10588000FC01E20FF11D677021E030E001C0220F42
:105890006A95EAF78281282B22830895262F269580
:1058A000269526952E3170F4FC01E20FF11D6770EC
:1058B00021E030E001C0220F6A95EAF7209582814D
:1058C00028232283089520918002222329F0209109
:1058D000D40427FD0C943A2C0C94132C20918002B4
:1058E000222329F02091D40427FD0C944E2C0C94F3
:1058F0002D2C20918002FC013296222331F08091E0
:10590000D40487FF02C08EE101C086E0DF011D9252
:105910008A95E9F7089508950C948B2C83E0809381
:10592000AD040C948C2C811102C081E001C082E096
:105930008093AD040C948C2C0C94932C81E0809378
:10594000AD040C948C2C0C949E2C08958091ED0643
:10595000843031F10E94BF031092AE0420E488E14C
:1059600090E00FB6F894A895809360000FBE209346
:10597000600083B7817F846083BF83B7816083BF0A
:105980007894889583B78E7F83BF0FB6F894A895D7
:1059900080916000886180936000109260000FBE6B
:1059A000089508950C94D12CCF930E94D22C0E947C
:1059B000E9120E94D12CC0E08C2F0E941312892B77
:1059C00029F4CF5FC630C1F780E001C081E0CF91FC
:1059D00008950E94ED070C9434041F920F920FB6A5
:1059E0000F9211248F939F93AF93BF938091AE0436
:1059F000811113C08091E5069091E606A091E7061B
:105A0000B091E8064196A11DB11D8093E5069093E3
:105A1000E606A093E706B093E806BF91AF919F9189
:105A20008F910F900FBE0F901F90189582E084BD4C
:105A300093E095BD9AEF97BD80936E0008952FB7C0
:105A4000F8948091E5069091E606A091E706B09162
:105A5000E8062FBF08952FB7F8946091E50670917E
:105A6000E6068091E7069091E8062FBF08959C0115
:105A70004FB7F8948091E5069091E606A091E7066D
:105A8000B091E8064FBF821B930B0895CF92DF922F
:105A9000EF92FF922FB7F894C090E506D090E606FB
:105AA000E090E706F090E8062FBFA7019601261BBD
:105AB000370B480B590BCA01B901FF90EF90DF90EB
:105AC000CF90089578941F920F920FB60F921124E1
:105AD0008F939F93AF93BF938091E5069091E606D5
