:100000000C9430030C9477030C9477030C947703CF
:100010000C9477030C9477030C9477030C94770378
:100020000C9477030C9477030C947E2C0C94502D35
:100030000C9477030C9477030C9477030C94770358
:100040000C9477030C94E3220C9477030C947703BD
:100050000C9477030C94DD270C9477030C947703AE
:100060000C9477030C9477030C9477030C94770328
:100070000C9477030C9477030C9477030C94770318
:100080000C9477030C9477030C9477030C94770308
:100090000C9477030C9477030C9477030C947703F8
:1000A0000C9477030C9477030C947703AF05AF059A
:1000B000DB05DB0543066106790779076C06050752
:1000C000160716071D081D082F082F0826082F08D9
:1000D0002F082F081D081D082B082F082F082B0894
:1000E000BD2DE42DDC2EE42DDC2E302E532EDC2E07
:1000F000AA2EB92E00263646002737470028384852
:1001000000293949002A3A4A002B3B4B0126364642
:10011000012737470128384801293949012A3A4A35
:10012000012B3B4B02263646022737470228384828
:1001300000746454007565550076665600796959F7
:10014000007A6A5A007B6B5B0174645401756555D3
:100150000176665601796959017A6A5A017B6B5BAF
:1001600002746454027565550276665600A4948440
:1001700000A5958500A6968600A7978700A8988871
:1001800000A99989027B6B5B01A4948401A59585E4
:1001900001A6968601A7978701A8988801A9998941
:1001A00002796959027A6A5A002E3E4E002F3F4F5B
:1001B000003040500031415100324252003343532D
:1001C00001AC9C8C012E3E4E012F3F4F0130405020
:1001D00001314151013242520133435302A7978703
:1001E00002A89888007C6C5C007D6D5D007E6E5E70
:1001F00000817161008272620083736301AD9D8D25
:10020000017C6C5C017D6D5D017E6E5E01817161C2
:10021000018272620183736302A9998900AC9C8C8C
:1002200000AD9D8D00AE9E8E00AF9F8F00B0A09060
:1002300000B1A19101AE9E8E01AF9F8F01B0A09041
:1002400001B1A19102293949022A3A4A022B3B4BBA
:1002500029003A003B003C003D003E003F004000CA
:10026000410042004300440045004C004600350078
:100270001E001F0020002100220000002300240097
:100280002500260027002D002E002A002B00140038
:100290001A000800150017004A001C0018000C0086
:1002A000120013002F0030003100E000040016009F
:1002B000070009000A0039000B000D000E000F00B6
:1002C0003300340031004D00E1001D001B0006002A
:1002D000190005002A001100100036003700380010
:1002E000E50052000000E200E0004B0000002C009E
:1002F0002800E300E60000004E000151E400500039
:1003000051004F00005C01000100010001000100EC
:10031000010001000100B200B300AF00B100145CA5
:10032000DF5C01000100010001000100010000008C
:100330000100010001000100010001000100530063
:10034000C35CC45CCA5CC65C010001004A000100D9
:100350000100010001000100010001000100010095
:10036000CD5CCB5CCC5C0100010001000100010010
:10037000010001000100010001004D000100010029
:100380000100010001000100010001000100010065
:1003900001000100A800A900000001000100010007
:1003A0000000010001000100010000000100010047
:1003B000AE00AC00AA00AB0000000000000000008E
:1003C000000000010204060A0F17202C3A4A5D7152
:1003D000879DB3C7DAE9F5FCFFFCF5E9DAC7B39D01
:1003E00087715D4A3A2C20170F0A060402010000AB
:1003F00000000000000000000001010101010101F6
:1004000001010202020202020202020303030303C9
:100410000303030404040404040405050505050698
:100420000606060607070707070808080809090956
:10043000090A0A0A0B0B0B0C0C0C0D0D0D0E0E0EFF
:100440000F0F0F1010111111121213131414151590
:1004500016161717181819191A1A1B1B1C1D1D1E02
:100460001E1F202021222223242425262627282956
:10047000292A2B2C2D2D2E2F303132323334353684
:100480003738393A3B3C3D3E3F4041424344454684
:100490004748494A4C4D4E4F505153545556585960
:1004A0005A5B5D5E5F616264656668696B6C6D6F07
:1004B0007072737577787A7B7D7E8082838587887A
:1004C0008A8C8E8F91939596989A9C9EA0A2A3A5B4
:1004D000A7A9ABADAFB1B3B5B7BABCBEC0C2C4C6B5
:1004E000C9CBCDCFD1D4D6D8DBDDDFE2E4E7E9EB71
:1004F000EEF0F3F5F8FAFDFF0E034E004100540054
:1005000055005200450000000E0358002D00420027
:100510004F005700530000000403090409023B0088
:10052000020100A0FA0904000001030101000921F1
:10053000110100012240000705810308000A090497
:100540000100010300000009211101000122B60091
:100550000705820320000A1201000200000008EDD6
:10056000FE261201000102000105010902A1018518
:10057000020901A1000509190129081500250195A5
:1005800008750181020501093009311581257F9522
:10059000027508810609381581257F950175088146
:1005A00006050C0A38021581257F9501750881061C
:1005B000C0C005010980A101850319012AB70015F2
:1005C0000126B700950175108100C0050C0901A135
:1005D00001850419012AA002150126A002950175C2
:1005E000108100C005010906A1018506050719E073
:1005F00029E71500250195087501810205071900F5
:1006000029EF1500250195F07501810205081901F2
:100610002905950575019102950175039101C005A4
:10062000010906A101050719E029E7150025019533
:1006300008750181029501750881010507190029D6
:10064000FF150026FF0095067508810005081901B1
:100650002905950575019102950175039101C00069
:1006600011241FBECFEFDAE0DEBFCDBF04B603FE1C
:1006700027C08091430690914406A0914506B09111
:1006800046068730904BA740B04BD1F410924306FA
:1006900010924406109245061092460614BE84B786
:1006A000877F84BF0FB6F894A89580916000886119
:1006B00080936000109260000FBEE0E0F8E30995BF
:1006C00013E0A0E0B1E0EEECF0E602C005900D9280
:1006D000AC30B107D9F726E0ACE0B3E001C01D9221
:1006E000A334B207E1F70E949B130C9465300C947D
:1006F000000080E00E94C71E0C94E7030E943E2683
:1007000081FF07C020E040E06FEF8DE290E00C94A5
:10071000B818089581E0089581E008950C948C0341
:1007200008950C9490031F93CF93DF9300D000D0D3
:100730001F92CDB7DEB749835A836B8330910E0386
:1007400089819A81311114C0662359F0222349F01E
:100750000E94C109182F682F89819A810E946A0915
:1007600003C00E949509182F69817A81812F04C0E6
:100770000E94C10969817A810F900F900F900F90AC
:100780000F90DF91CF911F910C940611FC01262F41
:10079000408151816281738184810C94930381E053
:1007A0000895CF93DF93EC0160E00E94C603BE0181
:1007B000DF91CF910C9491030E940F120E9462046A
:1007C0000E94A91E0C944C120C944812089508958E
:1007D0000C94E7030E940B080E94E8032FEF84E3C8
:1007E0009CE0215080409040E1F700C000000C9454
:1007F00003280F931F93CF93DF938C0161E00E9436
:10080000C603EC01B8010E948E03882309F444C09A
:10081000B801CE010E94F8248823F1F1B801CE017D
:100820000E9422238823C1F1B801CE010E945424E2
:10083000882391F1B801CE010E942922882361F119
:10084000F8018281882309F1CB358DE5D807C1F005
:1008500050F4C115FCE5DF0781F0CF3DDC45A9F47C
:100860000E94EB0E19C0CC35EDE5DE0761F0CD3509
:10087000DD4559F40E942E0E08C00E94EA030CC008
:100880000E94370E02C00E943A0EC801DF91CF913C
:100890001F910F910C948A0380E0DF91CF911F91FB
:1008A0000F9108950E9432260E94630480E00E9406
:1008B000C71E0C94790308950C945B0481E008959D
:1008C0000C945E040895CF93C82F0E945C048C2F73
:1008D0000E946004CF910895CF93DF93CDB7DEB728
:1008E0002B970FB6F894DEBF0FBECDBF4F8358874E
:1008F00069877A878B8761110E94870D9E012F5F20
:100900003F4F86E0F90111928A95E9F785E0FE01F3
:100910003796D90101900D928A95E1F789819A81E4
:100920004C815D81452B31F09F3F31F491E08F3F49
:1009300019F403C091E001C090E090FF09C0498123
:100940005A816B817C818D819E810E94A80C05C09B
:10095000C9010E94CF038111F2CF2B960FB6F894F4
:10096000DEBF0FBECDBFDF91CF910895FC01808126
:1009700091810E94030A0895CF93882309F450C0FF
:10098000C82F8CEF8C0F813AD0F46C2F80916502C8
:10099000909166020E94AB26882349F06C2F8091CB
:1009A0006502909166020E9436270E94AC0D6C2F62
:1009B00080916502909166020E942B270CC080E214
:1009C0008C0F883058F4C77081E001C0880FCA9539
:1009D000EAF70E946A0DCF910C94AC0DEBE5EC0F99
:1009E000E33040F4F0E0ED54FD4F808190E0CF9192
:1009F0000C946926E8E5EC0FE73150F4F0E0EE0FD7
:100A0000FF1FEB57FD4F80819181CF910C947F2682
:100A1000CD3E30F08C2F0E942A14CF910C94FC1400
:100A2000CF910895882389F19CEF980F913A40F473
:100A3000682F80916502909166020E9436270DC052
:100A400090E2980F983058F4877091E001C0990FA8
:100A50008A95EAF7892F0E94700D0C94AC0D9BE5E6
:100A6000980F933020F480E090E00C94692698E58C
:100A7000980F973120F480E090E00C947F268D3E13
:100A800020F00E9485140C94FC1408951F93CF93BA
:100A9000DF93182FEB010E94BC04209741F08FE9EF
:100AA0009FE00197F1F700C000002197F6CF812F5A
:100AB000DF91CF911F910C941205893319F060E0FA
:100AC00070E002C060E570E00C944605882321F0D8
:100AD0000E946A0D0C94AC0D0895882321F00E94A9
:100AE000700D0C94AC0D0895CF92DF92EF92FF92AF
:100AF0000F931F93CF93DF937C01D62FC72FFC0159
:100B00001281058102950F700E94600D8823B9F053
:100B10001123A9F08C2F807F803421F080E28D0F8B
:100B2000883068F080914B0482FD09C082E00E9409
:100B3000FC0D0E94600D91E0D82ED92601C0D12C69
:100B4000CC2EC2948FE0C8228C2D90E08C30910581
:100B500008F0CFC1FC01EA5AFF4F0C945A2F8C2F9A
:100B6000807FCF70882311F0C295C07F112399F048
:100B7000CC2309F4AAC180E28D0F883010F0D11186
:100B800004C08C2F0E946A0D03C08C2F0E947A0D26
:100B90000E94AC0D9AC18D2F0E941205CC2309F43E
:100BA000A8C180E28D0F883038F1DD2329F18C2F28
:100BB0000E94800D24C08C2F807FCF70803211F076
:100BC000C295C07FDD2319F0D130A1F13DC08091E5
:100BD0004B0482FF17C0112349F0CC2329F08C2F3E
:100BE0000E946A0D0E94AC0D80E070C180E00E94FE
:100BF0001205CC2309F47DC18C2F0E94700D0E9438
:100C0000AC0D77C1112371F0002341F0013031F4B4
:100C10000E948D0D8C2B0E94950D6BC10E948D0D35
:100C20008C2B1DC0002319F0013009F462C10E9411
:100C3000A20D25C0112321F0063008F05AC10EC0C4
:100C4000053008F056C11BC0112361F0002331F0BC
:100C5000F701858180FF39C18F7085838C2F0E94B9
:100C6000660547C1002359F0D93309F03FC1FFEFB2
:100C700007EE13E0F15000401040E1F735C18C2F32
:100C80000E946D0536C18C2F86958695837019F06C
:100C9000813061F02EC1112321F08D2F9C2F937094
:100CA00002C080E090E00E9469262BC1112321F050
:100CB0008D2F9C2F937002C080E090E00E947F26D1
:100CC00020C18D2F112319F00E942A1402C00E9406
:100CD00085140E94FC1415C18C2F837009F047C045
:100CE00011110BC12D2F229526952770220F220F4F
:100CF0006D2F6F70862F90E0A0E0B0E0022E04C050
:100D0000880F991FAA1FBB1F0A94D2F7D4FF10C0E7
:100D10004FE050E060E070E004C0440F551F661FD4
:100D2000771F2A95D2F7409550956095709503C02E
:100D300040E050E0BA01C695C695C3708A019B0198
:100D4000082B192B2A2B3B2BC901B801C23049F0C3
:100D500058F4C13019F00E948008CFC00E946E087C
:100D6000CCC00E949208C9C00E946C08C6C0112362
:100D700019F08C2F817001C08695882309F4BDC0BD
:100D80002D2F229526952770220F220F6D2F6F7021
:100D9000862F90E0A0E0B0E0022E04C0880F991FDB
:100DA000AA1FBB1F0A94D2F7D4FF10C04FE050E037
:100DB00060E070E004C0440F551F661F771F2A953E
:100DC000D2F7409550956095709503C040E050E093
:100DD000BA01C695C695C3708A019B01082B192BD1
:100DE0002A2B3B2BC901B801C23049F058F4C1305D
:100DF00019F00E94450981C00E9433097EC00E94FB
:100E000057097BC00E94A60878C0CF70112339F023
:100E10008C2F0E94CC088D2F0E9466056EC08D2FEE
:100E20000E946D058C2F0E94ED0867C0D23F21F112
:100E300028F4D03F41F0D13FC1F043C0D33F19F176
:100E4000D43F79F03EC0112341F0053008F051C085
:100E50008C2F8F710E9412094CC0063008F049C0D7
:100E6000F7CF80914B0482FF18C0112339F08C2FEB
:100E70008F710E94CC083DC01123C9F38C2F8F7154
:100E80000E94ED0836C0112329F08C2F8F710E942B
:100E9000B7082FC00E94B2082CC0112349F0CF71AF
:100EA0008C2F0E94CC0863E08C2F0E94E10D21C0A2
:100EB00081E00E94FC0D0230E0F082E00E94FC0D17
:100EC00018C0112331F0002391F28D2F0E94BC0431
:100ED00010C0002399F2D93349F41FEF27EE33E015
:100EE000115020403040E1F700C000008D2F0E94DB
:100EF000120588EF8C0D843020F40E9432260E9467
:100F00006304DD20C9F00E945C0D80FD15C0F7016F
:100F100012820E94560D0E94CC08C7010E94BD0794
:100F20000E94560DDF91CF911F910F91FF90EF908E
:100F3000DF90CF900C94ED08DF91CF911F910F912E
:100F4000FF90EF90DF90CF9008950F931F93CF9372
:100F5000DF93EC01688179818A810E940E0A8C01FD
:100F60000E9469090E945A08B801CE010E947405C6
:100F7000DF91CF911F910F910895CF93DF93EC01F3
:100F8000988189812B813C81232B31F08F3F31F473
:100F900081E09F3F19F403C081E001C080E080FD43
:100FA0001DC0CE010E94F903811110C00E94600D86
:100FB0008823A1F08A81882389F080914B0482FDE7
:100FC0000DC082E0DF91CF910C94FC0DCE010E9408
:100FD000A507CE01DF91CF910C94D103DF91CF9182
:100FE000089580E090E00E94692680E090E00E94F1
:100FF0007F260E94870D0E948A0D0E94AC0D0E94E0
:101000002D160C94FC1480916502909166020E944A
:1010100041270C94F1070E94770D0C940308E92FE7
:10102000E295EF704E2F50E0FA013297EE30F10565
:10103000B0F4EE59FF4F0C945A2F803F91F018F402
:10104000883E68F40EC0843F51F40BC0883E48F0DF
:10105000813F29F406C093FB882780F9089580E03A
:10106000089581E00895FC01808191810E94030A26
:101070000E940F080895CF93DF9300D000D01F92F5
:10108000CDB7DEB70F900F900F900F900F90DF91BC
:10109000CF910895CF93DF9300D000D000D0CDB78B
:1010A000DEB726960FB6F894DEBF0FBECDBFDF9138
:1010B000CF910895089508950C945B080C945C08F2
:1010C0000E945E0860934F03709350038093510316
:1010D000909352030C94F1070C9460080F931F93A4
:1010E00000914F031091500320915103309152030E
:1010F000602B712B822B932B1F910F910C94600806
:101100000F931F9300914F031091500320915103AF
:101110003091520360237123822393231F910F91F7
:101120000C9460080F931F9300914F03109150038C
:101130002091510330915203602771278227932712
:101140001F910F910C9460080C945B080E94A408F6
:1011500060934B0370934C0380934D0390934E0325
:101160000C94F10760E070E0CB010C94A6080F939B
:101170001F9341E050E060E070E08A019B0104C0F1
:10118000000F111F221F331F8A95D2F7C901B80122
:101190001F910F910C94A6080F931F9341E050E00C
:1011A00060E070E004C0440F551F661F771F8A95EA
:1011B000D2F780914B0390914C03A0914D03B091D5
:1011C0004E038A019B01082B192B2A2B3B2BC901AB
:1011D000B8011F910F910C94A6080F931F9341E043
:1011E00050E060E070E004C0440F551F661F771F99
:1011F0008A95D2F7409550956095709580914B03F4
:1012000090914C03A0914D03B0914E038A019B0134
:10121000082319232A233B23C901B8011F910F91E9
:101220000C94A6080F931F9341E050E060E070E03B
:1012300004C0440F551F661F771F8A95D2F780910F
:101240004B0390914C03A0914D03B0914E038A0142
:101250009B01082719272A273B27C901B8011F919D
:101260000F910C94A6080F931F9300914B031091BC
:101270004C0320914D0330914E03602B712B822B38
:10128000932B1F910F910C94A6080F931F9300911D
:101290004B0310914C0320914D0330914E0360237A
:1012A0007123822393231F910F910C94A6080F930F
:1012B0001F9300914B0310914C0320914D033091EB
:1012C0004E0360277127822793271F910F910C945B
:1012D000A60808952FE0929F800D1124E82FE6952F
:1012E000E695E695877051E001C0550F8A95EAF7BB
:1012F00085E0E89FF0011124E15FFC4F20E030E041
:1013000070E04081CB01022E02C0969587950A9429
:10131000E2F78170819584278523842781932F5F4D
:101320003F4F2530310569F708952FE0929F800DDA
:101330001124682F669566956695982F977085E0BD
:10134000689FB001112440E050E080E0FB01E40F11
:10135000F51FE15FFC4F208130E0092E02C0369579
:1013600027950A94E2F721703327042E01C0220F3B
:101370000A94EAF7822B4F5F5F4F4530510531F7F2
:101380000895BF92CF92DF92EF92FF920F931F9337
:10139000CF93DF938C01C0904B03D0904C03E0902F
:1013A0004D03F0904E0380914F0390915003A09114
:1013B0005103B0915203C82AD92AEA2AFB2ACFE165
:1013C000D0E0D701C6010C2E04C0B695A79597951D
:1013D00087950A94D2F780FD04C0219790F7B12C2D
:1013E00007C0BC2EB8018C2F0E9419110197A9F3D8
:1013F0008B2DDF91CF911F910F91FF90EF90DF9098
:10140000CF90BF900895CF93DF93EC010E94C10964
:10141000BE010E941911DF91CF9108951F93CF93C0
:10142000DF93EB0190910E03992321F0CB010E94F1
:10143000030A13C0882349F0CB010E94C109182F69
:10144000682FCE010E946A0904C0CB010E94950951
:10145000182FBE01812F0E941911DF91CF911F918A
:1014600008951F93CF93DF93C091530316E08091AB
:101470005403C81799F0D0E01C9FF0011D9FF00D98
:101480001124EB5AFC4F4081518162817381848128
:1014900095810E944A082196C770E9CFDF91CF91CC
:1014A0001F910895409185035091860360918703B1
:1014B000709188038091890390918A030C944A0863
:1014C000EF92FF920F931F93CF93DF9380918A0344
:1014D00082958F7009F065C080918703882309F495
:1014E00060C080915303F0905403109185030091E4
:1014F0008603609188037091890391E01F3F09F092
:1015000090E0C0916302D0916402292F96E0E92E09
:101510008F1509F446C06115710521F00F3F21F0C8
:1015200030E003C031E001C0322F90E030FD36C022
:10153000E89EF001E99EF00D1124DF01AB5ABC4F8B
:1015400011963C911197301329C03C91311326C05C
:1015500012963C911297311121C013964D915C91D6
:101560001497461B570B4C175D07C0F480918A03F4
:101570008F70806180938A03E65AFC4F80818F7060
:101580008061808385E893E00E94BD07DF91CF9161
:101590001F910F91FF90EF900C94310A0196877084
:1015A000B7CFDF91CF911F910F91FF90EF900895EA
:1015B0009F92AF92BF92CF92DF92EF92FF920F93E2
:1015C0001F93CF93DF93CDB7DEB761970FB6F89433
:1015D000DEBF0FBECDBF8C0185E0F801DE011D9698
:1015E00001900D928A95E1F7D8011296EC909091B6
:1015F0008503E091860320918803309189032115AA
:10160000310531F0EF3F31F481E09F3F19F403C021
:1016100081E001C080E0B82FB1709B2E80FD47C1F2
:10162000D8014C9111965C9111971396AD90BC9096
:10163000149785E8C82E83E0D82EF0908703B50173
:10164000621B730B2091630230916402FF2009F446
:10165000D9C080918A036217730708F095C0282FBC
:10166000207F09F052C05E1313C0491311C0FE2C35
:10167000E1100EC08F70806180938A030E94520A2D
:10168000C6010E94BD0780918A03F80185834DC180
:10169000AB2831F05F3F31F481E04F3F19F403C0D4
:1016A00081E001C080E080FD03C081E08E2502C0A2
:1016B00080E090E0F82FF170FF2E80FF1CC0809139
:1016C00053032091540336E0821709F40BC190E0D4
:1016D000389FF001399FF00D1124EB5AFC4F6181C6
:1016E000561306C06081461303C06281E61203C030
:1016F00001968770E9CFFE2CEE2009F416C1809187
:101700008A03816080938A0354C05E1306C0491324
:1017100004C0E11002C0F80199C0C8010E9433085A
:10172000882361F1EE2051F120918A03822F829566
:101730008F7090E0029774F08091850390918603FA
:1017400098878F831986BB86AA862C87CE01079639
:101750000E94BD0786E0F801A5E8B3E001900D9274
:101760008A95E1F70E94600A0E94520A0AC05E1739
:1017700011F1C8010E94330881112CC0C8010E94D8
:10178000BD07FF24F394D1C0282F207F81F77A2D45
:10179000B98AA88A6E2D89890E943B0885E893E062
:1017A0000E94BD0786E0D6011D928A95E9F70E9446
:1017B000520AF12CBAC04913DCCFE110DACFF8019C
:1017C0008583C8010E94BD0786E0D6011D928A95D7
:1017D000E9F7ABC0EE2091F220918A03822F829527
:1017E0008F7090E002970CF4B5CF809185039091B3
:1017F00086039A8389831B82BD82AC822E83CE01AD
:101800000196A6CF6217730708F044C0FE2CEE20A5
:1018100009F4B4CF5E1330C049132EC020918A035F
:1018200020FD21C0822F82958F70482F50E04115F6
:101830005105C9F0F80125834F30510541F08F5F04
:10184000982F9295907F822F8F70892B8583C80166
:101850000E94BD0786E0F801A5E8B3E001900D9273
:101860008A95E1F73CC086E0F801A5E8B3E0019075
:101870000D928A95E1F759C0C8010E943308811181
:1018800069CF80918A03816080938A03C8010E9496
:10189000BD074BC07A2DB98AA88A6E2D89890E940E
:1018A0003B0886E0D6011D928A95E9F718C0EE2024
:1018B00009F464CFC8010E943308F82E882309F484
:1018C0005DCF86E0F801A5E8B3E001900D928A951E
:1018D000E1F785E893E00E94B6040E94600A0E9446
:1018E000520A23C04D875E878D859E850E94030A1C
:1018F000292F22952F70223028F49F7039F0811102
:1019000005C00BC0243028F49F7049F4805E8830F5
:1019100020F0C8010E94BD079F2CF92C06C0D801F9
:1019200015969C91907F91F7F8CF8F2D61960FB609
:10193000F894DEBF0FBECDBFDF91CF911F910F9105
:10194000FF90EF90DF90CF90BF90AF909F90089561
:101950001F93CF93DF93CDB7DEB72C970FB6F894D4
:10196000DEBF0FBECDBF4F83588769877A878B87CD
:101970009C87CE0107960E94D80A8823D1F09F81C8
:1019800088852A853B85232B31F08F3F31F481E018
:101990009F3F19F403C081E001C080E080FD47C093
:1019A0004F81588569857A858B859C850E944A0878
:1019B0003EC086E0FE013796DE01119601900D9241
:1019C0008A95E1F7FF81E8856A857B856115710558
:1019D00031F0EF3F31F481E0FF3F19F403C081E0C3
:1019E00001C080E080FD23C02091540330E0C90194
:1019F0000196877099274091530350E0841795070B
:101A0000F1F1F983EA837D836C8396E0929FD001A4
:101A1000939FB00D1124AB5ABC4FFE01319601903B
:101A20000D929A95E1F7809354030E94310A16E0D3
:101A30008091530390915403891771F1189FC0014D
:101A400011248B5A9C4F0E94D80A882329F1E091D7
:101A500053031E9FF0011124EB5AFC4F408151812A
:101A600062817381848195810E944A088091530329
:101A700090E001968770992780935303D9CF0E94F5
:101A80000B081092540310925303E5E8F3E086E04C
:101A9000DF011D928A95E9F72C960FB6F894DEBF08
:101AA0000FBECDBFDF91CF911F91089580918B0321
:101AB000859585958595089580918B038770089508
:101AC00090918B03977081E009F480E008958091F4
:101AD000AF0308959091AF03892B8093AF030895CE
:101AE00080959091AF0389238093AF03089510925E
:101AF000AF0308959091AE03892B8093AE030895B0
:101B000080959091AE0389238093AE03089510923F
:101B1000AE0308951092AD03089580918C0308954B
:101B200008950C94900D0C94910D90914B0492FD9E
:101B300008C090918C03981721F080938C030C942B
:101B4000930D089580918C03882329F010928C03C3
:101B500080E00C94930D0895E0916502F091660287
:101B60008091AF038083E0916502F09166029081DD
:101B70008091AE03892B8083E0916502F09166022B
:101B800090818091AD03892B808380918C03882381
:101B900081F0E0916502F09166029081892B80834B
:101BA00080916502909166020E94952681110E94A3
:101BB000A20D80916502909166020C9441260C94CE
:101BC000900D90914B0492FD10C098E0899F900178
:101BD0001124262B20938B030E94CC0880918B0329
:101BE0008595859585950C94DF0D0C94CC08109205
:101BF0008B0380E00C94DF0D20918B038095822372
:101C000080938B03982F977099F430E0482F082E1B
:101C1000000C550B2417350759F090914B0492FD99
:101C200007C08595859585950E94ED080C94F70D64
:101C3000089590914B0492FB222720F9281769F010
:101C400080FB92F990934B0480914A0490914B044D
:101C50000E94670E82E00C94FC0D089580914B0465
:101C600082FB882780F991E089270C94190E81E086
:101C70000C94190E80E00C94190E6FEF7FEF80E04A
:101C800090E00C941E3080E090E00E94EA2F21E06A
:101C9000893E9E4F09F020E0822F089582E090E077
:101CA0000C94E22F83E090E00C94E22FCF9384E039
:101CB00090E00E94E22FC82F82E290E00E94E22F83
:101CC0002C2F30E0A901582BCA01CF910895CF9352
:101CD000C92F682F84E090E00E9400306C2F82E2D0
:101CE00090E0CF910C940030AB01BC018FE090E00C
:101CF0000C941230AB01BC0183E190E00C941230E3
:101D000060E070E0CB010C947A0E60E070E0CB01F3
:101D10000E94740E0C94800E69EE7EEF80E090E0DD
:101D20000E941E3060E082E090E00E94003060E09F
:101D300083E090E00E94003010924F031092500315
:101D4000109251031092520360E084E090E00E94F0
:101D5000003060E082E290E00E94003060E085E0C8
:101D600090E00E94003060E086E090E00E94003049
:101D70006FEF87E090E00E94003040E050E0BA0151
:101D800088E090E00E94123060E08DE090E00E94D8
:101D9000003040E050E0BA0188E190E00E9412304B
:101DA00060E087E190E00E94003040E050E0BA013E
:101DB0008CE190E00E94123060E070E080E290E000
:101DC0000E941E3040E050E0BA0188E190E00E949D
:101DD00012300C94850E0C948C0E682F8EE090E0DF
:101DE0000C9400300E94A6276093C1037093C20335
:101DF0008093C3039093C4036093BD037093BE03A9
:101E00008093BF039093C003089585B7806885BF12
:101E100085B7806885BF089581E008950C940C0F04
:101E200008950C94100F0C94100F0C94130F0C9435
:101E3000100F0C94170F0C94100F0E94050F85EFD4
:101E400091E10E9428260E941B0F0C94190F0E94FA
:101E5000110F0C94100F0E9491270E94F4120E94FF
:101E6000C5220C94150F6F927F928F929F92AF9222
:101E7000BF92CF92DF92EF92FF920F931F93CF9377
:101E8000DF93CDB7DEB72A970FB6F894DEBF0FBE4B
:101E9000CDBF0E94091381110E94F20E31EB832EF7
:101EA00033E0932E00E010E0E02E802F0E943312EA
:101EB0005C01F401619071904F01682679266114EC
:101EC0007104B1F40F5F1F4F0630110569F78FEFF2
:101ED00089838A831B820E949A278160782F9D8341
:101EE0008C8349815A816B818D810E946C0443C02F
:101EF0008091C50381FD0E943C12F12CCC24C39437
:101F0000D12CC3018C219D21892B71F10E940E0FD0
:101F1000AC20BD208823A1F0FE82EF8281E0A114D5
:101F2000B10409F480E088870E949A278160782FA5
:101F30009A8789874E815F8168858A850E946C04B3
:101F4000000F111FF801EF54FC4F80819181C826CA
:101F5000D926D182C08241E0AB2809F440E06F2D40
:101F60008E2D0E94081D07C0F394CC0CDD1CFFE0F1
:101F7000FF12C7CFA7CF0E94411E0E941A150E94D0
:101F800032269091B0038917D1F00E9432268093B7
:101F9000B0032A960FB6F894DEBF0FBECDBFDF9117
:101FA000CF911F910F91FF90EF90DF90CF90BF9056
:101FB000AF909F908F907F906F900C9463042A96BF
:101FC0000FB6F894DEBF0FBECDBFDF91CF911F914A
:101FD0000F91FF90EF90DF90CF90BF90AF909F90C8
:101FE0008F907F906F900895CF93DF930E941E1182
:101FF000EC01811521E5920708F045C0811530E517
:10200000930708F094C0883E910528F5803E91051D
:1020100008F0F8C0883A910570F4853A910508F007
:102020007CC08130910509F475C008F4E8C00497BC
:1020300008F0E8C0E4C08F3B910508F0E0C0C85A42
:10204000D0E0CC0FDD1FCA54DD4F0990D881C02DE0
:10205000CE019464D8C0811540E2940758F48115EC
:1020600051E0950708F0CEC08D3E910508F4C7C039
:102070009065C9C0C11580E4D80708F4C0C0DF70FE
:10208000CE01906AC0C0811525E59207A8F481159C
:1020900034E5930708F095C0811543E5940708F0EF
:1020A0007BC0811552E5950708F061C0D82FCC2779
:1020B000CE01816F906AA7C0C11589E5D807A0F449
:1020C000C11528E5D20708F082C0C11536E5D3074F
:1020D00008F095C08C2F0E94B2118F7190E0D82F1C
:1020E000CC27CE0190628FC0C1154AE5D40708F411
:1020F00074C0CE0190568115904208F080C08D2F9B
:102100008F710E94B211DD27D0628F71AE01582B02
:10211000CA0179C081E090E076C0C55AD0E0CC51C8
:10212000DD4F8881C82FD0E0CE0190646CC074E090
:10213000969587957A95E1F7282F23703C2F337079
:1021400081E090E002C0880F991F3A95E2F79C6801
:10215000AC01522B9A019C2F9F709695969550E258
:10216000959FE0011124C9018C2B9D2B4CC08370DD
:10217000992721E030E002C0220F331F8A95E2F751
:102180009C2F9695969580E2989FE0011124C22B92
:10219000D32BCE019C6837C08370992721E030E0B3
:1021A00002C0220F331F8A95E2F79C2F96959695D1
:1021B00040E2949FE0011124C22BD32BCE019A68F8
:1021C00022C0D82FCC27CE01846F906A1CC0DC2F90
:1021D000CC27CE01806F906A16C08C2F8F700E9422
:1021E000B21194E0D695C7959A95E1F7CF70D0E0FB
:1021F000DC2FCC27D0699E01282BC90104C080E0C8
:1022000090E001C0CE01DF91CF9108952AE5829F31
:10221000C0011124FC012FE0729FE00DF11D11247B
:10222000E60FF11DEE0FFF1FE05BFD4F85919491CE
:1022300008950E9406110E94F40F089582389105B6
:1022400069F1B0F48133910509F46DC048F4893225
:10225000910509F463C08A32910509F469C00895B3
:102260008533910509F455C089339105B9F0089576
:10227000833E910569F138F4803E9105B1F0823ECC
:10228000910509F10895863E9105A9F1873E9105D2
:10229000B9F1843E910509F064C023C020914A043D
:1022A00020FD4FC021FD4DC0089580914A0480FD5E
:1022B00044C080914B0480FF44C080914A0484FD57
:1022C00042C083EE4DC080914A0482FF38C0F5CFF2
:1022D00080914A0482FD33C080914B0480FD31C05F
:1022E000ECCF80914B0481FF32C080914A0484FD81
:1022F0002AC087EE35C080914A0483FF26C0F5CFFF
:1023000080914A0483FD21C080914B0481FD1FC050
:10231000ECCF80914A0485FD1CC01DC080914A0409
:1023200085FD19C016C080914A0486FD16C017C0ED
:1023300080914A0486FD13C010C089E311C082EE6B
:102340000FC080EE0DC080E00BC086EE09C084EEA9
:1023500007C089E205C085E303C08AE201C081E3CA
:1023600090E0089590914A0492FF0DC0282F2871A3
:10237000283019F4877F846006C0282F2471243008
:1023800011F48B7F886093FF0DC0282F28712831AE
:1023900019F4877E846106C0282F2471243111F43A
:1023A0008B7E886120914B0420FF0DC0382F38713F
:1023B000383019F4877F816006C0382F3171313091
:1023C00011F48E7F886021FF0DC0282F28712831DD
:1023D00019F4877E816106C0282F2171213111F403
:1023E0008E7E886194FD877E089580E008950C9428
:1023F0003D0E0E9409138FEB9DE50197F1F700C098
:1024000000000E94091380E00E94331280FF04C084
:102410000E94F7110C94032808950C94F9110E945E
:10242000430E811102C00E94EB0E0E944E0E80935B
:10243000C5030E94560E90934B0480934A040E9459
:102440000D120E94520E682F70E080E090E00E9412
:102450006C0860914B0370914C0380914D039091F7
:102460004E030C94A408E82FF0E0EE0FFF1FE85A8B
:10247000FB4F808191810895089580EA8A95F1F754
:10248000089500C008950C943D1208950C944512CF
:102490000C9446120C9445120C944A12F894E82FAE
:1024A000E295EF70F0E031A1282F2F7081E090E0ED
:1024B00001C0880F2A95EAF7982F9095932391A34E
:1024C00092A1892B82A3789408950F931F93CF93A1
:1024D000DF93C6EFD2E089918F3F11F00E944E1238
:1024E00082E0CC3FD807B9F7C7EED2E006EF12E0A2
:1024F00089918F3F11F00E944E120C171D07C1F7F2
:10250000DF91CF911F910F910895BF92CF92DF92EB
:10251000EF92FF920F931F93CF93DF938C01C62FFF
:10252000D0E0CE018A509D4F6C01FC0190819F3F0D
:1025300009F450C0B62EF894E92FE295EF70F0E060
:1025400081A19F7021E030E001C0220F9A95EAF747
:10255000822B81A382A12095282322A378940E9414
:102560004112E7EEF2E046EF52E021E030E0E12CEC
:10257000F12C61916F3F89F0A62FA295AF70B0E06A
:1025800090968C9190E06F7002C0959587956A95B2
:10259000E2F780FD02C0C90102C080E090E0E82AB5
:1025A000F92A220F331F4E175F0719F7F6018081B2
:1025B0008F3F11F00E944E1261E0E114F10409F422
:1025C00060E08B2D0E944312CC0FDD1FC00FD11F86
:1025D000F982E882DF91CF911F910F91FF90EF90E8
:1025E000DF90CF90BF9008950E9465128CE0E8E5DF
:1025F000F4E0DF01982F1D929A95E9F7ECE4F4E0FE
:10260000DF011D928A95E9F786E00E9454130C942D
:10261000DC03FF920F931F93CF93DF93CDB7DEB709
:102620002C970FB6F894DEBF0FBECDBF8E010F5FA3
:102630001F4F8CE0F80111928A95E9F7F12C6F2D6C
:10264000C8010E948512F394F6E0FF12F8CF4CE027
:1026500050E0B8018CE494E00E94C52FFF24F3946D
:10266000009709F4F12C892B41F08CE0F801ACE4DF
:10267000B4E001900D928A95E1F72F2D46E068E5D0
:1026800074E08CE494E00E9455130E94E4038F2DC3
:102690002C960FB6F894DEBF0FBECDBFDF91CF9161
:1026A0001F910F91FF9008950895FF920F931F932C
:1026B000CF93DF93F82E092F162FD72FC42F222365
:1026C00049F081E08093C8030E949A279093C70342
:1026D0008093C6038091C8038823D9F08091C603F4
:1026E0009091C7030E94B227039798F0EF2DF02F27
:1026F000A12FBD2F80E090E04C2F50E0841795076C
:1027000034F4219131912D933D930196F7CF10929E
:10271000C803DF91CF911F910F91FF9008950E9400
:10272000D6290E942B0F0C94E2290E94E6290E94D0
:10273000330F0C94002A0E946D270E94BD290E942D
:102740001D0F0E948F130E9495130E94270FFBCF2D
:102750008091CF0380FF0BC060916C0285E0689F81
:10276000B001112475956795759567952BC081FF0C
:1027700009C060916C0285E0689FB00111247595D5
:10278000679520C082FF07C060916C0285E0689F5A
:10279000B001112417C09091CE039923D1F060911C
:1027A0006B02961788F720916C0285E0289F9001B4
:1027B0001124929FA001939F500D112470E0CA0133
:1027C0000E94242F6038710540F46115710519F4D9
:1027D00006C065E070E0862F08958FE7089581E0D8
:1027E00008958091CF0380FF08C06091680270E077
:1027F000759567957595679521C081FF06C06091B5
:10280000680270E07595679519C082FF04C06091F9
:10281000680270E010C09091CD03992399F0609107
:1028200067029617A0F780916802899FC001112462
:1028300070E00E94242F6038710540F46115710525
:1028400019F406C061E070E0862F08958FE70895BF
:1028500081E008958D3E21F40E94A813819504C063
:102860008E3E29F40E94A8138093D30308958F3ECF
:1028700021F40E94A813819504C0803F29F40E948E
:10288000A8138093D2030895893F19F40E94F1138D
:1028900005C08A3F31F40E94F11381958093D403DF
:1028A00008958B3F21F40E94F113819504C08C3F61
:1028B00029F40E94F1138093D50308959FE0980FA7
:1028C000983078F421E030E0A90102C0440F551F90
:1028D0009A95E2F7CA019091D103892B8093D10395
:1028E00008958D3F21F48091CF0381600BC08E3F0E
:1028F00021F48091CF03826005C08F3F29F480913D
:10290000CF0384608093CF0308958D3E39F4909176
:10291000D30397FF35C01092D30359C08E3E29F4DC
:102920009091D3031916BCF32BC09091D2038F3E24
:1029300029F497FF25C01092D20349C0803F19F4B3
:102940001916CCF31DC09091D403893F29F41916B0
:10295000BCF41092D4033BC08A3F19F497FF10C017
:10296000F8CF8B3F39F49091D50397FF09C01092AF
:10297000D5032DC08C3F21F49091D5031916BCF3DB
:102980009FE0980F983080F421E030E0A90102C068
:10299000440F551F9A95E2F7CA0180959091D10393
:1029A00089238093D10313C08D3F21F48091CF03FD
:1029B0008E7F0BC08E3F21F48091CF038D7F05C0A9
:1029C0008F3F29F48091CF038B7F8093CF03809139
:1029D000D203811106C08091D303811102C01092ED
:1029E000CE038091D403811106C08091D50381115B
:1029F00002C01092CD0308950E949A272091D2031D
:102A0000211104C02091D303222321F09093CC0301
:102A10008093CB032091D403211104C02091D503CE
:102A2000222321F09093CA038093C90380ED93E0A1
:102A30000C945B26EF92FF920F931F93CF93DF933B
:102A400000D000D000D0CDB7DEB786E0E0EDF3E0F7
:102A5000DE01119601900D928A95E1F7E090D20384
:102A6000F090D3030091D4031091D5031092D203B8
:102A70001092D3031092D4031092D503E11003C037
:102A8000FF2009F45DC08091CB039091CC030E949C
:102A9000B227AC019091CE03992339F020916D02B9
:102AA00030E02417350758F04BC020916E028AE0C1
:102AB000289F900111242417350718F041C09F3F2B
:102AC00019F09F5F9093CE03EE2061F00E94A8134F
:102AD0001E1414F09FEF01C091E0989F902D1124D7
:102AE0009093D203FF2061F00E94A8131F1414F0EA
:102AF0009FEF01C091E0989F902D11249093D303F4
:102B00003091D2033323E1F02091D3032223C1F08B
:102B100045EB3403C0011124992319F09093D2039B
:102B200003C081E08093D20335EB2303C00111245D
:102B3000992319F09093D30303C081E08093D303CA
:102B4000011103C0112309F45DC08091C903909164
:102B5000CA030E94B227AC019091CD03992339F0AA
:102B60002091690230E02417350758F04BC02091BE
:102B70006A028AE0289F900111242417350718F073
:102B800041C09F3F19F09F5F9093CD03002361F0F8
:102B90000E94F113101614F09FEF01C091E0989F6E
:102BA000902D11249093D403112361F00E94F1130E
:102BB000111614F09FEF01C091E0989F902D112401
:102BC0009093D5033091D4033323E1F02091D503C2
:102BD0002223C1F045EB3403C0011124992319F0DD
:102BE0009093D40303C081E08093D40335EB230397
:102BF000C0011124992319F09093D50303C081E0FB
:102C00008093D5038091D20381110BC08091D303AF
:102C1000811107C08091D403811103C08091D50335
:102C200081110E94FC14EB82FC820D831E8386E0DE
:102C3000FE013196A0EDB3E001900D928A95E1F787
:102C400026960FB6F894DEBF0FBECDBFDF91CF91B1
:102C50001F910F91FF90EF900895E0EDF3E086E073
:102C6000DF011D928A95E9F71092CE031092CD03F1
:102C70001092CF030895EF92FF920F931F93CF937B
:102C8000DF938B01682F11110AC0442329F0E82F2C
:102C9000F0E0E850FC4F6491762F862F75C0212F0D
:102CA00030E0E82FF0E0442321F0E850FC4FE491BD
:102CB000F0E046E0049FC0011124CFEFD0E0BE0158
:102CC0000E94102F4BEA4603C001479F900D11242C
:102CD000800F911D800F911D982F990F890FAE01C4
:102CE000421B530B4E9FD0014F9FB00D5E9FB00D06
:102CF00011249B2F189FA0011124452F55278E01C9
:102D0000041B150B0E9FA0010F9F500D1E9F500D11
:102D100011247E01E81AF108E29E8001E39E100D65
:102D2000F29E100D1124212F3327C21BD30BCE9FEF
:102D30009001CF9F300DDE9F300D11246230710560
:102D4000A9F048F46115710569F061307105C9F4A5
:102D50008B2F752F0DC06430710581F058F06630EF
:102D6000710579F47E2F8B2F932F0DC0832F7B2F2E
:102D70009E2F09C08E2F7B2F952F05C08E2F732F6E
:102D800002C07E2F852F692FDF91CF911F910F9168
:102D9000FF90EF90089541E00E943B16089520E0D7
:102DA00030E0869F212D969F200D311D1124C901F1
:102DB0000895482F982F46FD9095E92FEF739F7047
:102DC00046FD9F5FE295EF70EE0FF0E0E450FD4F9F
:102DD0002181299F802D212D112482958F7022958C
:102DE000207F822B3081982F930F892F47FD81956B
:102DF00080580895E42FF0E0EE0FFF1FE25AFE4FD7
:102E0000408134EE439F412D1124E82FF0E050E043
:102E1000445E5F4FDA01A21BB1099D01B7FF03C0F9
:102E200031952195310993E0220F331F9A95E1F7EF
:102E3000AF01421B530B9A0157FF02C020E030E064
:102E4000582F259F212D1124822F0895622F089538
:102E5000E42FF0E0EE0FFF1FE25AFE4F6081621B8D
:102E60000895E42FF0E0EE0FFF1FE15AFE4F60815E
:102E7000621B0895A22F50E0FA01EE0FFF1FE15AE6
:102E8000FE4F9081915297FD9195440F551FFA0185
:102E9000E25AFE4F3081232F30E02A1B3109290FDF
:102EA000311D97FD3A95620F0895EF920F931F938E
:102EB00093E0099F80011124159507956E2D600FF1
:102EC0001F910F91EF9008950F931F93522F10E0D1
:102ED000F801EE0FFF1FE15AFE4FE081F0E0B197DD
:102EE0009F015203D001539FB00D1124000F111FF9
:102EF000F801E25AFE4F008110E00C551109400321
:102F00009001419F300D11242A0F3B1F37FF02C053
:102F100021583F4F220F232F221F330B620F1F9187
:102F20000F9108950F931F93522F10E0F801EE0FA9
:102F3000FF1FE15AFE4FE081F0E0B197EE0FFF1F57
:102F40009F015203D001539FB00D1124000F111F98
:102F5000F801E25AFE4F008110E00C551109000FF4
:102F6000111F40039001419F300D11242A0F3B1F78
:102F700037FF02C021583F4F220F232F221F330B50
:102F8000620F1F910F9108950F931F9310E0F801A6
:102F9000EE0FFF1FE25AFE4F90819C5597FD9195D1
:102FA000000F111FF801E15AFE4FE081F0E0B197E8
:102FB000DF01AA0FBB1F8D010E0F1F1F2003D001C1
:102FC000219FB00D1124E8E3F0E0E91BF10997FD22
:102FD000F3959F01220F331F89010E0F1F1F40031E
:102FE0009001419F300D11242A0F3B1F37FF02C073
:102FF00021583F4F220F232F221F330B620F1F91A7
:103000000F910895FC019B01009721F477FF2BC0DD
:1030100080E80895AC0197FF04C044275527481B5A
:10302000590BB901640F751F37FD0CC0241B350BFC
:10303000C901A5E0880F991FAA95E1F70E94242FE6
:1030400080E20CC0CB0165E0880F991F6A95E1F71B
:10305000BA01621B730B0E94242F80E6861BF7FFC8
:1030600003C08195089580E00895FF920F931F9308
:10307000CF93DF93F62ED72F182FC901C12FC01B76
:10308000BA010E940218982F990F890FC81B2C2F84
:10309000219F212D1124822F6F2D7D2FDF91CF9124
:1030A0001F910F91FF900895EF920F931F93CF936D
:1030B000DF93D62FC72F182FC9010E19010FBA01A0
:1030C0000E940218081B202F219F212D1124822FDE
:1030D0006D2F7C2FDF91CF911F910F91EF9008956D
:1030E0000F93CF93DF93D72FC82FC901BA010E9446
:1030F0000218682F600F7D2F8C2FDF91CF910F91D9
:103100000895EF920F93CF93DF93D72FC82FC90164
:103110000E19BA010E940218602F681B7D2F8C2F98
:10312000DF91CF910F91EF9008950E94CB160895F3
:10313000E4E6F4E085E2808380918202909183024C
:10314000A091840281839283A3838FE784838FEF8E
:10315000858346E050E06CE170E0CF010E94F02FE3
:103160001092D6030895E0910A03F0910B0309949D
:10317000E0910603F091070309948F929F92AF921A
:10318000BF92CF92DF92EF920F931F93CF93DF9373
:103190004C015B01FC01C08182E1C89FC02D11245C
:1031A000D2E1DC0FD83508F0D7E560916804669568
:1031B00080916A0490916B040E94CF16182FCD174E
:1031C00008F06DC0CC2ED12CF601E45FFD4F90814C
:1031D000F4018181892309F460C0F601EE0FFF1F1D
:1031E000E25AFE4F408150E04C555109F601EE0F76
:1031F000FF1FE15AFE4F208130E021523109449FE8
:10320000B001459F700D700D1124229FC001239FB6
:10321000900D900D1124680F791F6230710510F424
:10322000062F2AC0613EFEE17F0748F4CB01F5E09E
:1032300096958795FA95E1F7A8E0A80F01C0AFEF42
:1032400001E08A2F90E0800F911D95958795889FCA
:10325000F001899FF00DF00D11246E177F0718F40F
:10326000AFEFA80F04C08F3F31F001E0080FA017A7
:1032700040F7015001C00FEF609165047091660442
:1032800080916704E12EF50109950E949518462F5B
:10329000282F672FC6010E94B818CF5F90CF81E01A
:1032A000D73508F080E0DF91CF911F910F91EF901B
:1032B000DF90CF90BF90AF909F908F90089564E57E
:1032C00078E10C94BD1865E577E10C94BD1861E8D0
:1032D00078E10C94BD18AF92BF92CF92DF92EF923B
:1032E000FF920F931F93CF93DF936C015B01FC015F
:1032F000C08182E1C89FC02D1124D2E1DC0FD835F6
:1033000008F0D7E560916804669580916A04909111
:103310006B040E94CF16182FCD1778F5EC2EF12CE8
:10332000F701E45FFD4F9081F6018181892319F156
:10333000F701EE0FFF1FE15AFE4F208130E02152CE
:103340003109F701EE0FFF1FE25AFE4F408150E0B6
:103350004C55510960916504709166048091670431
:10336000012FF50109950E949518462F282F672FE8
:10337000C7010E94B818CF5FCFCF81E0D73508F0E2
:1033800080E0DF91CF911F910F91FF90EF90DF9040
:10339000CF90BF90AF90089565E378E10C946B19DE
:1033A00060E778E10C946B19BF92CF92DF92EF92B5
:1033B000FF920F931F93CF93DF938C017B01FC014E
:1033C000C08182E1C89FC02D1124D2E1DC0FD83525
:1033D00008F0D7E5609168046695669521E0620F74
:1033E00008F46FEF80916A0490916B040E94CF16ED
:1033F000B82ECD17F0F4CC2ED12CF601E45FFD4FA2
:103400009081F8018181892391F060916504709128
:103410006604809167042B2D4C2FF70109950E94BB
:103420009518462F282F672FC6010E94B818CF5F26
:10343000E0CF81E0D73508F080E0DF91CF911F9198
:103440000F91FF90EF90DF90CF90BF9008956AEFBB
:1034500076E10C94D41966E277E10C94D41968E211
:1034600077E10C94D41961E377E10C94D4196AE301
:1034700077E10C94D4197F928F929F92AF92BF9272
:10348000CF92DF92EF92FF920F931F93CF93DF9330
:103490006C015B01FC01C08182E1C89FC02D112439
:1034A000D2E1DC0FD83508F0D7E560916804669565
:1034B000669580916A0490916B040E94CF16182F34
:1034C00080E4810F0E94D91690E8F92EF80E812F22
:1034D0000E94D91620E8722E780ECD1700F58C2E9A
:1034E000912CF401E45FFD4F9081F60181818923E5
:1034F000A1F0609165047091660480916704E12EEB
:103500000C2F272D4F2DF50109950E949518462F58
:10351000282F672FC4010E94B818CF5FDECF81E04B
:10352000D73508F080E0DF91CF911F910F91FF9088
:10353000EF90DF90CF90BF90AF909F908F907F9053
:10354000089564E677E10C943B1A62E977E10C9404
:103550003B1A64EC77E10C943B1ADF92EF92FF92F6
:103560000F931F93CF93DF938C01DC018C91C2E109
:103570008C9FC02D1124D2E1DC0FD83508F0D7E59F
:103580006091650470916604809167040E949518AB
:10359000F62EE72ED82ECD1798F4EC2FF0E0DF01B1
:1035A000A45FBD4F8C91D80111969C91982331F066
:1035B0002D2D4F2D6E2DCF010E94B818CF5FEBCF70
:1035C00081E0D73508F080E0DF91CF911F910F9116
:1035D000FF90EF90DF900895AF92BF92CF92DF926D
:1035E000EF92FF920F931F93CF93DF938C01FC0117
:1035F000C08182E1C89FC02D1124D2E1DC0FD835F3
:1036000008F0D7E5E0906604F0906704D090650478
:103610006D2D7E2D8F2D0E949518C62EB72EA82EAB
:10362000609168046D0D7E2D8F2D0E949518F62EE9
:10363000E72ED82ECD17B8F48C2F90E0FC01E45F74
:10364000FD4F3081F8012181232359F030FF04C060
:103650002D2D4F2D6E2D03C02A2D4C2D6B2D0E942C
:10366000B818CF5FE7CF81E0D73508F080E0DF9171
:10367000CF911F910F91FF90EF90DF90CF90BF906F
:10368000AF900895BF92CF92DF92EF92FF920F9387
:103690001F93CF93DF937C01FC01C08182E1C89F1F
:1036A000C02D1124D2E1DC0FD83508F0D7E5C09049
:1036B0006604B09067042091680430E4D32E3D2D59
:1036C000329F312D1124D32ECD1738F50C2F10E059
:1036D000F801E45FFD4F9081F70181818923D9F0E2
:1036E000F801EE0FFF1FE25AFE4F6081D69EB00137
:1036F000112495E0759567959A95E1F78091650499
:10370000680F7C2D8B2D0E949518462F282F672F30
:10371000C8010E94B818CF5FD7CF81E0D73508F035
:1037200080E0DF91CF911F910F91FF90EF90DF909C
:10373000CF90BF900895DF92EF92FF920F931F9367
:10374000CF93DF938C01DC01CC9182E1C89FC02D27
:103750001124D2E1DC0FD83508F0D7E5E0906504FC
:10376000F0906604D0906704609168046695669551
:10377000669580916A0490916B040E94CF160E9416
:10378000D916805887FD8195880F282F3D2D239FBE
:10379000212D1124822FB7010E949518F62EE72EB5
:1037A000D82ECD1798F4EC2FF0E0DF01A45FBD4FC9
:1037B0008C91D80111969C91982331F02D2D4F2D8D
:1037C0006E2DCF010E94B818CF5FEBCF81E0D735C7
:1037D00008F080E0DF91CF911F910F91FF90EF9063
:1037E000DF900895DF92EF92FF920F931F93CF9394
:1037F000DF93EC01FC01E45FFD4F9081692381F1CF
:10380000D09066040091670410916504E12EF12CBC
:103810000E94AC2F282FC7018C549F4F68E671E09F
:103820000E94242F8E199F0997FD039695958795E1
:10383000959587952370612F289F600D11247D2D0C
:10384000802F0E949518462F282F672FCE01DF91D9
:10385000CF911F910F91FF90EF90DF900C94B818CB
:10386000DF91CF911F910F91FF90EF90DF9008951E
:10387000CF92DF92FF920F931F93CF93DF938C0130
:10388000FC01C281C1111DC06091680420E1620F7A
:1038900008F46FEF80916A0490916B040E94CF1638
:1038A0006AE070E00E94102F892B59F50E94AC2F1E
:1038B00067E570E00E94242FF80161810E94F21BED
:1038C00020C0FC018081C2E18C9FC02D112492E1B7
:1038D000F92EFC0EF7E5FF1510F487E5F82ED0E081
:1038E000CF2CD12CCC15DD053CF4F8016181CE0143
:1038F0000E94F21B2196F6CFC1E0F6E5FF1508F411
:10390000C0E08C2FDF91CF911F910F91FF90DF903E
:10391000CF9008951F93CF93DF93FC01E45FFD4F99
:1039200020816223D1F0EC010E94AC2F182F0E945D
:10393000AC2F8F77782F20E8720F08F47FEF612F7C
:10394000809167040E949518462F282F672FCE017B
:10395000DF91CF911F910C94B818DF91CF911F91F7
:103960000895CF92DF92FF920F931F93CF93DF932F
:103970008C01FC01C281C1111DC06091680420E16D
:10398000620F08F46FEF80916A0490916B040E94BB
:10399000CF1665E070E00E94102F892B59F50E9428
:1039A000AC2F67E570E00E94242FF80161810E942E
:1039B0008A1C20C0FC018081C2E18C9FC02D112493
:1039C00092E1F92EFC0EF7E5FF1510F487E5F82ECD
:1039D000D0E0CF2CD12CCC15DD053CF4F801618171
:1039E000CE010E948A1C2196F6CFC1E0F6E5FF15B4
:1039F00008F4C0E08C2FDF91CF911F910F91FF90C1
:103A0000DF90CF900895E0910803F09109030994A5
:103A10000C940C0F80916A0490916B04A0916C043B
:103A2000B0916D0488279C70AA27BB272AE0B69521
:103A3000A795979587952A95D1F782309105A1058D
:103A4000B10571F083309105A105B10569F040E041
:103A50000197A105B10511F060E008C064E102C062
:103A600044E160E080E003C044E164E184E10C945F
:103A7000031DCF93C82F809173028C130DC020912A
:103A80006404237030E04091740250E081E0241718
:103A9000350719F480E001C081E0817080937202E3
:103AA0008091690490917102981739F080937102A6
:103AB00040E060E080E00E94031DCA3011F580E71D
:103AC00092E00E94331A09C0C53008F045C0C130E9
:103AD00011F580E792E00E94AD1A909170029F5F0D
:103AE000909370028111A9C082E080936F0280914F
:103AF00072028111A2C0C111A0C083E080936F0245
:103B00009CC0CB3008F04DC0C430F1F680E792E0A5
:103B10000E949B1BE2CFC13058F48091720288232F
:103B200029F040E060E080E00E94031D80E0D5CFF6
:103B3000C23029F480E792E00E94EC1ACECFC33065
:103B400029F480E792E00E94421BC7CF8091700267
:103B50008F5F80937002C8CFC73029F480E792E06E
:103B60000E945F19BACFC83070F4C53029F480E7DD
:103B700092E00E94271AB1CFC63041F780E792E069
:103B80000E94CC19AACFC83029F480E792E00E94A5
:103B90002B1AA3CFC930D1F680E792E00E942F1AEA
:103BA0009CCFCF3029F480E792E00E94A11A95CFF4
:103BB000C031E8F4CC3029F480E792E00E94631928
:103BC0008CCFCC3028F480E792E00E94371A85CF62
:103BD000CD3029F480E792E00E94D0197ECFCE301C
:103BE00009F0B4CF80E792E00E94671976CFC23126
:103BF00029F480E792E00E94381C6FCFC33178F43B
:103C0000C03129F480E792E00E94A51A66CFC13145
:103C100009F09CCF80E792E00E94A91A5ECFC331E1
:103C200029F480E792E00E94B11C57CFCF3F09F002
:103C30008DCF0E940A1D82E061CFCF910895089533
:103C40000C941F1E0E94201E0C947E0308950C9459
:103C5000261ECF93DF93FC01C081C15082E1C89F33
:103C6000C02D1124D2E1DC0FD83508F0D7E56D2F37
:103C70008C2F0E94271E6D2F8C2FDF91CF910C94DB
:103C8000261ECF930E94A6276093D7037093D80374
:103C90008093D9039093DA032091DB03211108C0AC
:103CA000C09164042C2F237019F0C695C69501C0ED
:103CB000C0E020916F02213091F028F02230D9F03D
:103CC000233031F144C01092700260936A04709303
:103CD0006B0480936C0490936D0481E016C08C2F6C
:103CE0000E94391DCC2399F10E94221E80E792E0A8
:103CF000CF910C94291EC093730280916404837049
:103D0000809374020E94B31883E080936F021FC0F7
:103D10008091D603882351F046E050E06CE170E0DA
:103D200084E694E00E94F02F1092D60360916A041A
:103D300070916B0480916C0490916D040E94C12776
:103D4000603171058105910510F010926F02CF91DD
:103D50000895E0910403F091050309950E94430E34
:103D6000811104C00E94EB0E0E94981846E050E0BA
:103D70006CE170E084E694E00E94D22F1092D603AA
:103D8000809164048C7F11F40C9498180895CF935B
:103D9000C82F882391F08091DB0381110EC00E940F
:103DA000391D1092730280916404837080937402B1
:103DB0000E94B31883E080936F02C093DB03CF911E
:103DC0000895E4E6F4E0208191E092279083109238
:103DD0006F029091D603892B8093D603089581E0DA
:103DE0000C94E11E909164049370A1F0811102C0C3
:103DF000946007C0843110F09C6403C0880F880F62
:103E0000982B9093640410926F028091D603682BD4
:103E10006093D603089561E00C94F21E682F909190
:103E20006404969596959F5F943110F4892F01C094
:103E300081E00C94F21E81E00C940E1F682F90918B
:103E4000640496959695915011F0892F01C083E1F5
:103E50000C94F21E81E00C941E1F909164049370E8
:103E600071F08093650460936604493C08F048EC67
:103E7000409367048091D603282B2093D60308959E
:103E8000A4E6B4E01196EC911197F0E0282F139678
:103E90004C91139712966C91CF0108960C942D1F9C
:103EA00081E00C94401FA4E6B4E01196EC911197C8
:103EB000F0E0282F13964C91139712966C91CF0136
:103EC00008970C942D1F81E00C94531FE4E6F4E056
:103ED000628120E1620F08F46FEF9181282F438106
:103EE000892F90E00C942D1F81E00C94661FE4E66E
:103EF000F4E0628120E1621B08F460E09181282FE8
:103F00004381892F90E00C942D1F81E00C94771F42
:103F1000E4E6F4E0438120E1420F08F44FEF9181A1
:103F2000282F6281892F90E00C942D1F81E00C9442
:103F3000881FE4E6F4E0438120E1421B08F440E0FE
:103F40009181282F6281892F90E00C942D1F81E0B0
:103F50000C94991F809368048091D603682B60931A
:103F6000D60308952091680430E1230F08F42FEF61
:103F7000682F822F0C94AA1F81E00C94B21F20910D
:103F8000680430E1231B08F420E0682F822F0C9492
:103F9000AA1F81E00C94BF1F60E084E70E94D92132
:103FA00061E086E70E94D92162E085E70C94D9217F
:103FB000CF930E944A2584E70E942C2086E70E9426
:103FC0002C2085E70E942C20C0E021E041E061E048
:103FD0008C2F0E94DD20CF5FC735B9F760E084E702
:103FE0000E94F12161E086E70E94F12162E085E70D
:103FF000CF910C94F121EEE1F6E06083418324E659
:1040000030E042E050E0BF01880F0C9401260F938E
:104010001F93CF93DF93082F000FEB0114E210934F
:104020001E06EFE1F6E0DE018D91819386E0EF322E
:10403000F807D1F724E630E041E150E06EE176E0A8
:10404000802F0E940126105F6096143B41F7DF919C
:10405000CF911F910F910895CF93DF93C82F4BE01D
:104060006DEF0E94FB1F40E06AE08C2F0E94FB1F57
:104070008FE39CE90197F1F700C0000040E060E0A9
:104080008C2F0E94FB1F40E061E08C2F0E94FB1FE1
:1040900040E066E08C2F0E94FB1F40E06DEF8C2F0C
:1040A0000E94FB1FD0E040E06D2F8C2F0E94FB1F71
:1040B000DF5FD231C1F740E06D2F8C2F0E94FB1FD4
:1040C000DF5FD432C1F740E06D2F8C2F0E94FB1FC1
:1040D000DF5FD43BC1F74BE06DEF8C2F0E94FB1FDD
:1040E00041E06AE08C2F0E94FB1F40E06DEF8C2FB7
:1040F000DF91CF910C94FB1FFF920F931F93CF93EF
:10410000DF9300D000D0CDB7DEB78735910588F5B5
:10411000122F042FF62EBC01660F771F660F771F34
:104120006C507F4F44E050E0CE0101960E94BC2FBE
:10413000898183704A81282F30E050E9859FC00132
:10414000112482599B4FFC01E40FF11DB497F082BA
:104150004B81FC01E40FF11DB49700834C81840F67
:10416000911DFC01B4971083F901EB5EFB4F81E0D8
:1041700080830F900F900F900F90DF91CF911F9140
:104180000F91FF900895FF920F931F93CF93DF93AA
:10419000182F062FF42EC0E0D0E02F2D402F612FD6
:1041A000CE010E947C202196C735D105B1F7DF9161
:1041B000CF911F910F91FF9008955F926F927F9220
:1041C0008F929F92AF92BF92CF92DF92EF92FF9227
:1041D0000F931F93CF93DF9300D000D0CDB7DEB7FE
:1041E000862E942E522E24E0829FC0011124BC0101
:1041F0006C507F4F44E050E0CE0101960E94BC2FEE
:104200002A8130E0C9018497FC0197FD379673E05D
:10421000F595E7957A95E1F74B8150E08A010452D4
:104220001109980117FF02C0295F3F4F63E03595E0
:1042300027956A95E1F74C8150E05A0164E2A61A8D
:10424000B1083501B7FE04C03A017DE1671A710873
:1042500043E0759467944A95E1F758E0C52ED12C58
:10426000B6010E94242F7C01C801B6010E94242FB0
:104270008C01C501B6010E94242FFF274981FF242C
:10428000542F5370882081F062E1569FE00DF11D9C
:104290001124E152FC4F61E070E001C0660FEA9426
:1042A000EAF75081652B10C072E1579FE00DF11DB8
:1042B0001124E152FC4F61E070E001C0660FEA9406
:1042C000EAF7609550816523608333271127542FC7
:1042D0005370992089F062E1569F200D311D112401
:1042E000F901E152FC4F21E030E001C0220F0A95B4
:1042F000EAF73081232B11C072E1579F200D311D49
:104300001124F901E152FC4F21E030E001C0220FFD
:104310000A95EAF720953081232320837724992773
:10432000942F937093015520A1F052E1959F200D99
:10433000311D1124F901E152FC4F21E030E0B901B7
:1043400002C0660F771F8A95E2F7CB019081892B17
:1043500014C072E1979F200D311D1124F901E15223
:10436000FC4F21E030E0B90102C0660F771F8A954B
:10437000E2F7CB0180959081892380834370E42FFD
:10438000F0E0E452FC4F81E080830F900F900F909B
:104390000F90DF91CF911F910F91FF90EF90DF90E1
:1043A000CF90BF90AF909F908F907F906F905F90D5
:1043B0000895CF93DF93262F30E0E901CB5EDB4FEA
:1043C0009881992351F090E9929FB001939F700DCD
:1043D000112462597B4F0E9407201882DF91CF91F0
:1043E0000895DF92EF92FF920F931F93CF93DF9385
:1043F000262F30E0A90144525C4F7A01FA019081E6
:1044000091110AC0F7011082DF91CF911F910F9196
:10441000FF90EF90DF900895D82EF2E16F9FE001BA
:10442000112400E010E0F801EC0FFD1FE152FC4FF9
:104430004081602F8D2D0E94FB1F0F5F1F4F0231A7
:10444000110589F7DFCF882311F0FA0101C0FB01C4
:1044500009941F93CF93DF93FB011281112309F479
:104460008CC0EC010E94670D8272CB3CFCE5DF073B
:1044700009F46EC048F5C63CECE5DE0709F454C00B
:1044800070F4C43C9CE5D90709F442C008F045C06B
:10449000C33CDC4509F074C00E94EF1E70C0C83CEC
:1044A0009CE5D90709F44AC008F443C0C93CFCE5BF
:1044B000DF0709F448C0CA3CDC4509F061C047EA9F
:1044C0005FE166E97FE12DC0C03DECE5DE0709F460
:1044D00050C088F4CD3C9CE5D90709F443C0E8F10D
:1044E000CE3CFCE5DF0709F442C0CF3CDC4509F0D7
:1044F00047C084E03FC0C73D9CE5D90728F4C23DD2
:10450000DC45E8F58DE036C0CE35DD45C1F138C07B
:104510004AE25FE16BE17FE104C04BE15FE16AE207
:104520007FE10E9423222BC043E65FE160E57FE14B
:10453000F8CF40E55FE163E67FE1F3CF45E85FE177
:1045400064E77FE1EECF44E75FE165E87FE1E9CF33
:1045500046E95FE167EA7FE1E4CF49EC5FE16CEBBC
:104560007FE1DFCF4CEB5FE169EC7FE1DACF81E007
:1045700001C089E00E940B1F02C011E001C010E0E1
:10458000812FDF91CF911F910895E1E8F0E08081C4
:10459000886080838081816080838FB7F89420ED6C
:1045A00033E030938900209388008FBF0895EFE6B1
:1045B000F0E08081826080830895EFE6F0E0808102
:1045C0008D7F808308951F920F920FB60F92112452
:1045D0002F933F934F935F936F937F938F939F930B
:1045E000AF93BF93EF93FF938091180490911904B8
:1045F00001969093190480931804811103C082E0FE
:104600000E946304E0911904E695E695F0E0E85411
:10461000FC4FE491809118048E1303C080E00E9447
:104620006304FF91EF91BF91AF919F918F917F9123
:104630006F915F914F913F912F910F900FBE0F900F
:104640001F901895CF93DF93EC01FB0182818823A3
:1046500009F426C1C430FDE5DF0760F4CB3F9CE5DB
:10466000D90768F49E0122503C452431310508F0F9
:1046700018C105C0C236EDE5DE0709F012C10E947F
:10468000560E90934B0480934A04C031FCE5DF073B
:1046900009F4CAC008F041C0C8309CE5D90709F444
:1046A000A4C0F0F4C430FCE5DF0709F48CC068F462
:1046B000C2309CE5D90709F482C0C330DC4509F05B
:1046C000E5C080914A048260DFC0C630FCE5DF07A8
:1046D00009F483C008F085C080914A048860D4C082
:1046E000CC309CE5D90709F490C068F4CA30FCE5E9
:1046F000DF0709F47EC008F084C00E940B08809197
:104700004A048068C1C0CE309CE5D90709F481C055
:1047100008F086C080914A0494C0CD3FFCE5DF07D5
:1047200009F47BC038F5C4319CE5D90709F49AC077
:1047300058F4C231FCE5DF0709F47AC008F07EC006
:1047400080914A048F7BA0C0CB3F9CE5D907F1F153
:1047500008F03FC0C531DC4509F098C080914A049B
:1047600082FB222720F991E0922790FB82F990FBAF
:1047700083F98AC0C1308DE5D80709F467C050F4C9
:1047800080914B04CF3FECE5DE07C1F108F05BC040
:104790008D7F65C0C3308DE5D80709F471C008F47A
:1047A0006DC0C236DD4509F071C080914A0484FBBA
:1047B000222720F991E0922790FB84F965C080912F
:1047C0004A04816061C080914A0416C080914B0404
:1047D00016C080914B04826042C080914A0480617F
:1047E00053C080914A0480624FC080914A04806423
:1047F0004BC080914A048860846046C082608160BA
:104800002EC080914A048E7F3FC080914A048D7FE4
:104810003BC080914A04877F37C080914B0414C00D
:1048200080914A048F7E30C080914A048F7D2CC0D5
:104830000E940B0880914A048F7726C080914A0419
:10484000877F8B7F21C08D7F8E7F09C080914B0435
:10485000982F909591708E7F892B90FB81F9809392
:104860004B0414C00E940B0880914A0487FB222746
:1048700020F991E0922790FB87F906C081E001C002
:1048800080E00E94ED0E02C080934A0480914A04A9
:1048900090914B040E94670E0E940B0880E001C0BB
:1048A00081E0DF91CF910895CF93DF9386319C45CE
:1048B00041F5EB010E94670D982F8A8120916502D6
:1048C00030916602882379F09A7A81E009F480E0D9
:1048D00080931A04911102C069E201C065E3C90125
:1048E0000E942B270AC080911A04811102C069E23C
:1048F00001C065E3C9010E9436270E94AC0D80E02B
:1049000001C081E0DF91CF9108950F931F93CF9362
:10491000DF93C42FD22FFC0182818823C9F04093FA
:104920001D040E949A2790931C0480931B0480E22C
:104930008C0F883008F057C0C77081E001C0880F25
:10494000CA95EAF7DF91CF911F910F910C946605FC
:1049500080911D04481330C080911B0490911C0469
:104960000E94B227883C910538F510E21D0FCD1743
:10497000B9F080E28C0F883040F4C77081E001C04C
:10498000880FCA95EAF70E946D05183028F581E076
:104990009D2F977001C0880F9A95EAF70E946605CF
:1049A000802F0E945D051830F0F4D77081E001C0BF
:1049B000880FDA95EAF70AC080E28C0F883098F405
:1049C000C77081E001C0880FCA95EAF7DF91CF91E7
:1049D0001F910F910C946D05802FDF91CF911F9146
:1049E0000F910C945D05DF91CF911F910F91089568
:1049F0000F939C01CB01243F4CE5340731F188F43F
:104A0000293DFCE53F07D9F02A3D4CE5340779F113
:104A1000283D3C45A9F506E221EE41EE68ED7CE536
:104A20002BC0263FFCE53F07E1F0A8F0273F3C45BF
:104A300039F507E225EE46EE67EF7CE51DC007E29B
:104A400025EE45EE69ED7CE517C006E221EE40EE6D
:104A500064EF7CE511C007E225EE44EE65EF7CE5EE
:104A60000BC006E221EE42EE66EF7CE505C008E2EF
:104A700021E045EE6AED7CE50E94852480E008C0D7
:104A8000FC018281882319F010921D0401C081E08D
:104A90000F9108951092B9008CE08093B8000895AA
:104AA0009F92AF92BF92CF92DF92EF92FF920F93BD
:104AB0001F93CF93DF93B82EEB010E949A276C01CE
:104AC000C431D10558F0CF3F8FEFD80759F0CE0150
:104AD00064E170E00E94102F7B0107C0EE24E39494
:104AE000F12C03C025E0E22EF12C84E8A82E94EAF4
:104AF000992E1092BC009092BC000E949A278C01C3
:104B00008091BC0087FD08C00E949A27801B910BF2
:104B10008E159F05A8F32AC08091B900887F883040
:104B200041F08091B900887F803119F00FEF1FEFBD
:104B30001FC0B092BB00A092BC000E949A278C01BB
:104B40008091BC0087FD08C00E949A27801B910BB2
:104B50008E159F05A8F30AC08091B900887F88311F
:104B600011F0803419F700E010E00EC00EEF1FEFD7
:104B7000CF3F8FEFD80709F4BCCFC6010E94B22700
:104B80008C179D0708F4B5CFC801DF91CF911F9115
:104B90000F91FF90EF90DF90CF90BF90AF909F90DC
:104BA00008950F931F93CF93DF93EB018093BB0086
:104BB00084E88093BC000E949A278C018091BC00FD
:104BC00087FD0EC0CF3F8FEFD807C1F30E949A2711
:104BD000801B910B8C179D0788F38EEF9FEF0CC005
:104BE0002091B900287F81E090E0283211F480E024
:104BF00090E0919581959109DF91CF911F910F914F
:104C00000895CF92DF92EF92FF920F931F93CF936D
:104C1000DF936B018A017901B9010E945025E601F9
:104C20000C0D1D1DC017D10761F424E92093BC00B1
:104C3000DF91CF911F910F91FF90EF90DF90CF9078
:104C4000089597FDF2CFB70189910E94D125EACF4F
:104C500090930D0380930C03089590932304809305
:104C600022040895E0912204F0912304309721F06A
:104C70000190F081E02D099480E008950E94322691
:104C80000895E0912204F0912304309799F0209147
:104C90008102222359F020914A0427FF07C0DC013A
:104CA0002C9111962C93119726E02C930280F3817E
:104CB000E02D09940895E0912204F09123043097A7
:104CC00039F022E0DC012C930480F581E02D099479
:104CD000089520912004309121042817390771F09C
:104CE0009093210480932004E0912204F091230406
:104CF000309721F00680F781E02D099408952091E6
:104D00001E0430911F042817390771F090931F0477
:104D100080931E04E0912204F0912304309721F047
:104D20000084F185E02D09940895FC01329680916C
:104D30008102882331F080914A0487FF02C09EE1FE
:104D400001C096E080E0915028F021912223D9F310
:104D50008F5FF9CF0895662351F1209181022223BC
:104D6000E9F020914A0427FF19C0462F4695469541
:104D700046954E31E0F4677021E030E002C0220F2A
:104D8000331F6A95E2F7FC01E40FF11D828190E088
:104D90002823392381E0232B69F409C0FC013296D2
:104DA00008962191621729F0E817F907D1F780E0FA
:104DB000089581E008959C01FC0132969FEF80E008
:104DC0004191461789F09F3F19F4411101C0982F76
:104DD0008F5F8630A9F79F3F39F0F901E90FF11D88
:104DE00097FDFA956283089508959C012A5F3F4FCD
:104DF000FC014281461301C012820196821793077B
:104E0000B9F70895262F2695269526952E3168F414
:104E1000FC01E20FF11D677021E030E001C0220FBC
:104E20006A95EAF78281282B22830895262F2695FA
:104E3000269526952E3170F4FC01E20FF11D677066
:104E400021E030E001C0220F6A95EAF720958281C7
:104E500028232283089520918102222329F0209182
:104E60004A0427FD0C9402270C94DB262091810232
:104E7000222329F020914A0427FD0C9416270C9434
:104E8000F52620918102FC013296222331F0809197
:104E90004A0487FF02C08EE101C086E0DF011D9257
:104EA0008A95E9F7089508950C94532783E0809339
:104EB00024040C945427811102C081E001C082E0D7
:104EC000809324040C9454270C945B2781E08093F6
:104ED00024040C9454270C946627089580913A0674
:104EE000843011F00C94E603089508950C9475270E
:104EF000CF930E9476270E9409130E947527C0E075
:104F00008C2F0E943312892B29F4CF5FC630C1F752
:104F100080E001C081E0CF9108950E940B080C94BD
:104F2000520482E084BD93E095BD9AEF97BD8093D3
:104F30006E0008952FB7F894809132069091330651
:104F4000A0913406B09135062FBF08952FB7F8947D
:104F50006091320670913306809134069091350647
:104F60002FBF08959C014FB7F8948091320690911D
:104F70003306A0913406B09135064FBF821B930BC8
:104F80000895CF92DF92EF92FF922FB7F894C090DE
:104F90003206D0903306E0903406F09035062FBFED
:104FA000A7019601261B370B480B590BCA01B90103
:104FB000FF90EF90DF90CF90089578941F920F921A
:104FC0000FB60F9211248F939F93AF93BF9380914D
:104FD000320690913306A0913406B09135060196C1
:104FE000A11DB11D8093320690933306A093340621
:104FF000B0933506BF91AF919F918F910F900FBEE7
:105000000F901F90189581E08093E00080E28093DC
:10501000D8001092C9008FE19EE40197F1F700C01B
:10502000000087E090EBDC018093430690934406F8
:10503000A0934506B09346069CE088E10FB6F8942D
:10504000A895809360000FBE90936000FFCF809181
:1050500048040895089522E02093E9002FEF30914D
:10506000E800215035FD06C035ED3A95F1F7000016
:105070002111F5CF2091E80025FF0BC040E050E062
:1050800066E070E00E94722A8091E8008E7780933B
:10509000E8000895CF93DF9320918102222339F015
:1050A00020914A0427FF03C060E222E002C068E0CA
:1050B00021E02093E9002FEF3091E800215035FDE9
:1050C00006C035ED3A95F1F700002111F5CF20919A
:1050D000E80025FF1DC0EC0180918102811105C00F
:1050E00040E050E068E070E003C070E040E050E075
:1050F000CE010E94722A8091E8008E778093E800AA
:1051000080E2FE01A8E2B4E001900D928A95E1F7F9
:10511000DF91CF91089580932504709327046093C5
:10512000260480913A06843001F582E08093E900FC
:105130008FEF9091E800815095FD06C095ED9A950E
:10514000F1F700008111F5CF8091E80085FF0DC0D7
:1051500040E050E063E070E085E294E00E94722A53
:105160008091E8008E778093E8000895BC0184E088
:105170000C948B28BC0183E00C948B288091390619
:10518000811109C00E94032C0E94602C8091E200D2
:1051900084608093E20008951092390608950C947B
:1051A0006B276091360681E0611101C080E00E94AA
:1051B00056270C94D72290913A0681E0943009F05A
:1051C00080E0609136060E945B270E94DD220E94EB
:1051D00032260C94630442E061EC81E00E947C2B57
:1051E00042E261EC82E00E947C2B90913A0681E0E1
:1051F000943009F080E0609136060C946427809129
:105200003C06833009F461C030F4813071F08230A3
:1052100009F49AC008958A3009F486C08B3009F4E5
:105220006CC0893009F0A8C020C080913B06813A4B
:1052300009F0A2C08091E800877F8093E800809108
:105240003F0690914006892B21F460E288E294E0C9
:1052500003C060E080E090E070E00E94BD2A809191
:10526000E8008B778093E800089580913B068132B7
:1052700009F082C080913F0690914006029708F0A5
:105280007BC08091E800877F8093E8008091E800F0
:1052900082FD05C080913A068111F8CF6DC0209142
:1052A000F3008091F20090E0922B029731F480910C
:1052B000F100813011F0863021F48091F10080936B
:1052C00048048091E8008B7753C080913B06813A77
:1052D00009F052C080913F0690914006892B09F059
:1052E0004BC08091E800877F8093E8008091E800C0
:1052F00080FFFCCF8091810236C080913B068132D5
:10530000D9F580913F0690914006892BA9F58091AF
:10531000E800877F8093E8000E94B12B80913D06D2
:10532000809381020C940B0880913B06813221F519
:105330008091E800877F8093E8000E94B12B8091E4
:105340003E0680934904089580913B06813AA1F47A
:105350008091E800877F8093E8008091E80080FFDB
:10536000FCCF809149048093F1008091E8008E7712
:105370008093E8000C94B12B089584B7877F84BF95
:105380000FB6F894A89580916000886180936000C2
:10539000109260000FBE90E080E80FB6F894809302
:1053A0006100909361000FBE0C9466270E94032C4D
:1053B0000E94602CE2EEF0E080818460808378942B
:1053C0000C94F52E85E792E00C942D2680913A06F8
:1053D0008530A9F480913A06853079F40E946E27D1
:1053E000809138068823B1F30E947827882391F3AF
:1053F0000E945C2A0E940B08EDCF0C948D27089523
:1054000008950C94032A292F332723303105C9F03E
:1054100060F42130310581F02230310509F044C0BB
:105420008BE390E02CE135E043C021323105E1F01F
:105430002232310549F138C082E190E027E535E0BC
:1054400037C099278130910549F028F0029761F51E
:10545000E8EFF4E005C0E8E1F5E002C0E8E0F5E0DF
:10546000849190E09F0124C06115710541F0613085
:105470007105D1F489E090E027E435E019C089E0B6
:1054800090E02EE235E014C06115710541F0613005
:10549000710551F486EB90E029E635E009C080E41F
:1054A00090E02FE136E004C080E090E020E030E0C2
:1054B000FA0131832083089580E189BD82E189BDAD
:1054C00009B400FEFDCF8091D8008F7D8093D80075
:1054D0008091E00082608093E0008091E00081FD97
:1054E000FCCF0895CF92DF92EF92FF920F931F931C
:1054F000CF93DF93EC018B017A010E94D02B8111B5
:1055000033C0E114F10439F0F70180819181081B67
:10551000190BC80FD91FC12CD12C0115110519F178
:105520008091E80085FD16C08091E8008E77809319
:10553000E800E114F10449F0F70180819181C80E7F
:10554000D91ED182C08285E00FC00E94D02B882353
:1055500021F30AC089918093F10001501109FFEFF6
:10556000CF1ADF0ADACF80E0DF91CF911F910F9140
:10557000FF90EF90DF90CF900895209141063091F9
:1055800042062617370748F06115710539F4209156
:10559000E8002E772093E80001C0B901FC0120E06B
:1055A0006115710579F180913A068823F1F1853012
:1055B000F1F18091E80083FD3CC08091E80082FD1C
:1055C0002EC08091E80080FFEBCF2091F300809106
:1055D000F20090E0922B6115710551F08830910531
:1055E00038F421912093F100615071090196F3CFB5
:1055F00021E0089709F020E08091E8008E77809301
:10560000E800CECF2111CFCF0AC080913A0688237F
:1056100061F0853061F08091E80083FD0AC08091DF
:10562000E80082FFF2CF80E0089582E0089583E0F1
:10563000089581E008952091410630914206261791
:10564000370748F06115710539F42091E8002E778D
:105650002093E80001C0B901FC0120E0611571054B
:1056600091F180913A06882309F440C0853009F40D
:105670003FC08091E80083FD3DC08091E80082FD3D
:105680002FC08091E80080FFE9CF2091F300809146
:10569000F20090E0922B6115710559F08830910568
:1056A00040F424912093F1003196615071090196E4
:1056B000F2CF21E0089709F020E08091E8008E7792
:1056C0008093E800CBCF2111CCCF0AC080913A065D
:1056D000882361F0853061F08091E80083FD0AC085
:1056E0008091E80082FFF2CF80E0089582E0089583
:1056F00083E0089581E00895982F973068F590939E
:10570000E900981739F07091EC002091ED0050916C
:10571000F00003C0242F762F50E021FD02C09F5FD0
:10572000ECCF3091EB003E7F3093EB003091ED00F9
:105730003D7F3093ED003091EB0031603093EB0012
:105740007093EC002093ED005093F0002091EE0058
:1057500027FDE5CF80E008958F708093E90081E018
:10576000089580913B0687FF11C08091E80082FD7B
:1057700005C080913A068111F8CF11C08091E800F0
:105780008B770BC080913A06882349F08091E8001E
:1057900080FFF8CF8091E8008E778093E80008952D
:1057A0002091E4003091E50095E64091EC00842FD3
:1057B000817040FF23C08091E80080FD1DC0809172
:1057C0003A06882399F0853099F08091EB0085FDA9
:1057D00011C04091E4005091E5002417350729F3EA
:1057E000915011F09A01E1CF84E0089582E008958C
:1057F00083E0089581E0089580E008954091E800F5
:1058000042FFDDCF08950E94712C0E94792CE0EEBA
:10581000F0E0808181608083E8EDF0E080818F7727
:10582000808319BCA7EDB0E08C918E7F8C93808132
:105830008F7E80831092390608950F931F93CF9324
:10584000DF930E94712C0E94792CC8EDD0E08881F2
:105850008F77888388818068888388818F7D88831B
:1058600019BC10923A061092360610923806109221
:10587000370600EE10E0F80180818B7F80838881FD
:105880008160888342E060E080E00E947C2BE1EE52
:10589000F0E080818E7F8083E2EEF0E080818160A5
:1058A0008083808188608083F80180818E7F8083FF
:1058B000888180618883DF91CF911F910F91089536
:1058C000E8EDF0E080818F7E8083E7EDF0E080817D
:1058D0008160808384E082BF81E0809339060C94EC
:1058E0001D2CE8EDF0E080818E7F80831092E20035
:1058F00008951092DA001092E10008951F920F921D
:105900000FB60F9211242F933F934F935F936F9392
:105910007F938F939F93AF93BF93EF93FF93809168
:10592000E10082FF0BC08091E20082FF07C08091FE
:10593000E1008B7F8093E1000E94F42E8091DA00D9
:1059400080FF1FC08091D80080FF1BC08091DA00CB
:105950008E7F8093DA008091D90080FF0DC080E1B6
:1059600089BD82E189BD09B400FEFDCF81E080934D
:105970003A060E94BE2805C019BC10923A060E9441
:10598000CC288091E10080FF19C08091E20080FF67
:1059900015C08091E2008E7F8093E2008091E2004A
:1059A00080618093E2008091D80080628093D8006B
:1059B00019BC85E080933A060E94D1288091E100CD
:1059C00084FF30C08091E20084FF2CC080E189BD5B
:1059D00082E189BD09B400FEFDCF8091D8008F7DA2
:1059E0008093D8008091E1008F7E8093E1008091C8
:1059F000E2008F7E8093E2008091E20081608093DC
:105A0000E20080913606882311F084E007C080917F
:105A1000E30087FD02C081E001C083E080933A0685
:105A20000E94DB288091E10083FF29C08091E20081
:105A300083FF25C08091E100877F8093E10082E0B1
:105A400080933A06109236068091E1008E7F809313
:105A5000E1008091E2008E7F8093E2008091E2007D
:105A600080618093E20042E060E080E00E947C2B55
:105A70008091F00088608093F0000E94CF28FF9111
:105A8000EF91BF91AF919F918F917F916F915F91B6
:105A90004F913F912F910F900FBE0F901F9018952F
:105AA0001F920F920FB60F9211242F933F934F9393
:105AB0005F936F937F938F939F93AF93BF93CF9396
:105AC000DF93EF93FF93C091E900CF708091EC00DA
:105AD000D82FD17080FDD0E81092E9008091F000BD
